:020000040800F2
:100000004889002039110008A1110008A111000839
:10001000A1110008A1110008A111000800000000B2
:10002000000000000000000000000000A111000816
:10003000A111000800000000A1110008A111000892
:10004000A1110008A1110008A1110008A1110008C8
:10005000A1110008A1110008A1110008A1110008B8
:10006000A1110008A1110008A1110008A1110008A8
:10007000A1110008A1110008A1110008A111000898
:10008000A1110008A1110008A1110008A111000888
:10009000A1110008A1110008A1110008A111000878
:1000A000A1110008A1110008A1110008A111000868
:1000B000A1110008A1110008A1110008A111000858
:1000C000A1110008A1110008A1110008A111000848
:1000D000A111000889100008A1110008A111000851
:1000E000A1110008A1110008A1110008A111000828
:1000F000A1110008A1110008A1110008A111000818
:10010000A1110008A1110008A1110008A111000807
:10011000A1110008A1110008A1110008790D000823
:10012000A1110008A1110008A1110008A1110008E7
:10013000A1110008A1110008A1110008A1110008D7
:10014000A1110008A1110008A1110008A1110008C7
:10015000A1110008A111000841100008A111000818
:10016000A1110008A1110008A1110008A1110008A7
:10017000A1110008A1110008A1110008A111000897
:10018000A1110008A111000880B584B000AF78600B
:1001900039600023FB600FE0FB687A6813441B782A
:1001A0001846F9683A6800F011F8FB680133FB6003
:1001B000FB68072B00DD05E0FB687A6813441B78B9
:1001C000002BE9D11037BD4680BD00BF80B586B099
:1001D00002AF0346B9607A60FB73BB689BB21A46F4
:1001E00092001344DB0099B27B689BB21A469200DE
:1001F00013441B019AB2002300930846114628229B
:10020000502301F0A3FFFB7B303B092B00F2ED8470
:1002100001A252F823F000BF410200087103000858
:10022000D9030008D5040008D10500089B06000882
:1002300097070008C50800085D090008BD0A000806
:10024000BB689BB21A4692001344DB009BB20F338B
:100250009AB27B689BB2194689000B441B019BB282
:100260001C339BB2104619460A224FF6FF7301F069
:1002700099FFBB689BB21A4692001344DB009BB205
:100280001A339AB27B689BB2194689000B441B0152
:100290009BB21D339BB2104619460A224FF6FF73DC
:1002A00001F0B2FFBB689BB21A4692001344DB0018
:1002B0009BB21A339AB27B689BB2194689000B44F1
:1002C0001B019BB229339BB2104619460A224FF6F6
:1002D000FF7301F099FFBB689BB21A46920013446A
:1002E000DB009BB20F339AB27B689BB21946890040
:1002F0000B441B019BB234339BB2104619460A22B1
:100300004FF6FF7301F04EFFBB689BB21A46920096
:100310001344DB009BB20E339AB27B689BB2194642
:1003200089000B441B019BB229339BB2104619462E
:100330000A224FF6FF7301F067FFBB689BB21A46B3
:1003400092001344DB009BB20E339AB27B689BB2DF
:10035000194689000B441B019BB21D339BB210460A
:1003600019460A224FF6FF7301F04EFF00F03EBC23
:10037000BB689BB21A4692001344DB009BB21A334F
:100380009AB27B689BB2194689000B441B019BB251
:100390001D339BB2104619460A224FF6FF7301F037
:1003A00033FFBB689BB21A4692001344DB009BB23A
:1003B0001A339AB27B689BB2194689000B441B0121
:1003C0009BB229339BB2104619460A224FF6FF739F
:1003D00001F01AFF00F00ABCBB689BB21A469200FB
:1003E0001344DB009BB20F339AB27B689BB2194671
:1003F00089000B441B019BB21C339BB2104619466B
:100400000A224FF6FF7301F0CDFEBB689BB21A467D
:1004100092001344DB009BB21A339AB27B689BB202
:10042000194689000B441B019BB21D339BB2104639
:1004300019460A224FF6FF7301F0E6FEBB689BB235
:100440001A4692001344DB009BB20F339AB27B68CA
:100450009BB2194689000B441B019BB234339BB2FB
:10046000104619460A224FF6FF7301F09BFEBB6847
:100470009BB21A4692001344DB009BB20E339AB231
:100480007B689BB2194689000B441B019BB2293340
:100490009BB2104619460A224FF6FF7301F0B4FED4
:1004A000BB689BB21A4692001344DB009BB20F3329
:1004B0009AB27B689BB2194689000B441B019BB220
:1004C00028339BB2104619460A224FF6FF7301F0FB
:1004D00069FE8BE3BB689BB21A4692001344DB00B3
:1004E0009BB20F339AB27B689BB2194689000B44CA
:1004F0001B019BB21C339BB2104619460A224FF6D1
:10050000FF7301F04FFEBB689BB21A469200134482
:10051000DB009BB21A339AB27B689BB21946890002
:100520000B441B019BB21D339BB2104619460A2295
:100530004FF6FF7301F068FEBB689BB21A4692004B
:100540001344DB009BB21A339AB27B689BB2194604
:1005500089000B441B019BB229339BB210461946FC
:100560000A224FF6FF7301F04FFEBB689BB21A469A
:1005700092001344DB009BB20F339AB27B689BB2AC
:10058000194689000B441B019BB234339BB21046C1
:1005900019460A224FF6FF7301F004FEBB689BB2B6
:1005A0001A4692001344DB009BB20F339AB27B6869
:1005B0009BB2194689000B441B019BB228339BB2A6
:1005C000104619460A224FF6FF7301F0EBFD0DE3CA
:1005D000BB689BB21A4692001344DB009BB21A33ED
:1005E0009AB27B689BB2194689000B441B019BB2EF
:1005F0001D339BB2104619460A224FF6FF7301F0D5
:1006000003FEBB689BB21A4692001344DB009BB208
:100610001A339AB27B689BB2194689000B441B01BE
:100620009BB229339BB2104619460A224FF6FF733C
:1006300001F0EAFDBB689BB21A4692001344DB004E
:100640009BB20E339AB27B689BB2194689000B4469
:100650001B019BB21D339BB2104619460A224FF66E
:10066000FF7301F0D1FDBB689BB21A4692001344A0
:10067000DB009BB20F339AB27B689BB219468900AC
:100680000B441B019BB228339BB2104619460A2229
:100690004FF6FF7301F086FDA8E2BB689BB21A46D5
:1006A00092001344DB009BB20F339AB27B689BB27B
:1006B000194689000B441B019BB21C339BB21046A8
:1006C00019460A224FF6FF7301F06CFDBB689BB21E
:1006D0001A4692001344DB009BB21A339AB27B682D
:1006E0009BB2194689000B441B019BB229339BB274
:1006F000104619460A224FF6FF7301F085FDBB68CC
:100700009BB21A4692001344DB009BB20F339AB29D
:100710007B689BB2194689000B441B019BB23433A2
:100720009BB2104619460A224FF6FF7301F03AFDBC
:10073000BB689BB21A4692001344DB009BB20E3397
:100740009AB27B689BB2194689000B441B019BB28D
:100750001D339BB2104619460A224FF6FF7301F073
:1007600053FDBB689BB21A4692001344DB009BB258
:100770000F339AB27B689BB2194689000B441B0168
:100780009BB228339BB2104619460A224FF6FF73DC
:1007900001F008FD2AE2BB689BB21A46920013449E
:1007A000DB009BB20F339AB27B689BB2194689007B
:1007B0000B441B019BB21C339BB2104619460A2204
:1007C0004FF6FF7301F0EEFCBB689BB21A46920035
:1007D0001344DB009BB21A339AB27B689BB2194672
:1007E00089000B441B019BB229339BB2104619466A
:1007F0000A224FF6FF7301F007FDBB689BB21A4651
:1008000092001344DB009BB20F339AB27B689BB219
:10081000194689000B441B019BB234339BB210462E
:1008200019460A224FF6FF7301F0BCFCBB689BB26D
:100830001A4692001344DB009BB20E339AB27B68D7
:100840009BB2194689000B441B019BB229339BB212
:10085000104619460A224FF6FF7301F0D5FCBB681B
:100860009BB21A4692001344DB009BB20E339AB23D
:100870007B689BB2194689000B441B019BB21D3358
:100880009BB2104619460A224FF6FF7301F0BCFCDA
:10089000BB689BB21A4692001344DB009BB20F3335
:1008A0009AB27B689BB2194689000B441B019BB22C
:1008B00028339BB2104619460A224FF6FF7301F007
:1008C00071FC93E1BB689BB21A4692001344DB00B3
:1008D0009BB20F339AB27B689BB2194689000B44D6
:1008E0001B019BB21C339BB2104619460A224FF6DD
:1008F000FF7301F057FCBB689BB21A469200134489
:10090000DB009BB21A339AB27B689BB2194689000E
:100910000B441B019BB21D339BB2104619460A22A1
:100920004FF6FF7301F070FCBB689BB21A46920051
:100930001344DB009BB21A339AB27B689BB2194610
:1009400089000B441B019BB229339BB21046194608
:100950000A224FF6FF7301F057FC47E1BB689BB2D8
:100960001A4692001344DB009BB20F339AB27B68A5
:100970009BB2194689000B441B019BB21C339BB2EE
:10098000104619460A224FF6FF7301F00BFCBB68B4
:100990009BB21A4692001344DB009BB21A339AB200
:1009A0007B689BB2194689000B441B019BB21D3327
:1009B0009BB2104619460A224FF6FF7301F024FC41
:1009C000BB689BB21A4692001344DB009BB21A33F9
:1009D0009AB27B689BB2194689000B441B019BB2FB
:1009E00029339BB2104619460A224FF6FF7301F0D5
:1009F0000BFCBB689BB21A4692001344DB009BB20F
:100A00000F339AB27B689BB2194689000B441B01D5
:100A10009BB234339BB2104619460A224FF6FF733D
:100A200001F0C0FBBB689BB21A4692001344DB0086
:100A30009BB20E339AB27B689BB2194689000B4475
:100A40001B019BB229339BB2104619460A224FF66E
:100A5000FF7301F0D9FBBB689BB21A4692001344A6
:100A6000DB009BB20E339AB27B689BB219468900B9
:100A70000B441B019BB21D339BB2104619460A2240
:100A80004FF6FF7301F0C0FBBB689BB21A469200A1
:100A90001344DB009BB20F339AB27B689BB21946BA
:100AA00089000B441B019BB228339BB210461946A8
:100AB0000A224FF6FF7301F075FB97E0BB689BB20B
:100AC0001A4692001344DB009BB20F339AB27B6844
:100AD0009BB2194689000B441B019BB21C339BB28D
:100AE000104619460A224FF6FF7301F05BFBBB6804
:100AF0009BB21A4692001344DB009BB21A339AB29F
:100B00007B689BB2194689000B441B019BB21D33C5
:100B10009BB2104619460A224FF6FF7301F074FB90
:100B2000BB689BB21A4692001344DB009BB21A3397
:100B30009AB27B689BB2194689000B441B019BB299
:100B400029339BB2104619460A224FF6FF7301F073
:100B50005BFBBB689BB21A4692001344DB009BB25E
:100B60000F339AB27B689BB2194689000B441B0174
:100B70009BB234339BB2104619460A224FF6FF73DC
:100B800001F010FBBB689BB21A4692001344DB00D5
:100B90009BB20E339AB27B689BB2194689000B4414
:100BA0001B019BB21D339BB2104619460A224FF619
:100BB000FF7301F029FBBB689BB21A4692001344F5
:100BC000DB009BB20F339AB27B689BB21946890057
:100BD0000B441B019BB228339BB2104619460A22D4
:100BE0004FF6FF7301F0DEFA00E000BF1037BD469C
:100BF00080BD00BF80B584B000AF0220012100F0AD
:100C00009DFC47F6FF73BB60B323BB800023BB8111
:100C10000023FB803B1D0548194601F0A1FE034857
:100C2000012101F007FF1037BD4680BD00040040E0
:100C300080B483B000AF0346FB80074B00225A62AA
:100C400000BF054B5B6A9BB2FA889A42F9D20C3717
:100C5000BD465DF8047B70470004004080B582B05B
:100C600000AF0346FB8003E04FF47A70FFF7E0FF2C
:100C7000FB885A1EFA80002BF6D10837BD4680BD8E
:100C800080B582B000AF0346FB71FB7903F001032E
:100C9000002B04D03748022101F076FB03E03548F1
:100CA000022101F07FFBFB7903F00203002B04D04B
:100CB0003048042101F068FB03E02E48042101F0D4
:100CC00071FBFB7903F00403002B04D029480821B1
:100CD00001F05AFB03E02748082101F063FBFB7990
:100CE00003F00803002B04D02248102101F04CFB34
:100CF00003E02048102101F055FBFB7903F01003BD
:100D0000002B04D01B48202101F03EFB03E01948D2
:100D1000202101F047FBFB7903F02003002B04D0D6
:100D20001448402101F030FB03E01248402101F05B
:100D300039FBFB7903F04003002B04D00D488021E0
:100D400001F022FB03E00B48802101F02BFBFB7933
:100D50005BB2002B05DA07484FF4807101F014FBF9
:100D600004E004484FF4807101F01CFB0837BD46D5
:100D700080BD00BF0008024080B500AF32480121AD
:100D800001F078FE314B1B78012B1AD0022B2FD0AB
:100D9000002B44D12E484FF4805101F003FB2D4B22
:100DA0001B78DBB21846FFF76BFF29484FF4007140
:100DB00001F0EAFA254B1B780133DAB2234B1A70A3
:100DC00041E023484FF4007101F0ECFA214B5B78CD
:100DD000DBB21846FFF754FF1D484FF4806101F065
:100DE000D3FA1A4B1B780133DAB2184B1A702AE087
:100DF00017484FF4806101F0D5FA164B9B78DBB2AF
:100E00001846FFF73DFF12484FF4006101F0BCFAAD
:100E10000E4B1B780133DAB20C4B1A7013E00C48FE
:100E20004FF4006101F0BEFA0A4BDB78DBB21846E2
:100E3000FFF726FF06484FF4805101F0A5FA034B57
:100E400000221A7000BF80BD0014004081080020FD
:100E5000000802407C08002080B483B000AF7860B6
:100E60007B689B889BB2C3F308039BB218460C3780
:100E7000BD465DF8047B704780B483B000AF7860F6
:100E80000B467B8013467B707B78002B08D07B68F9
:100E90009B8A9AB27B8813439AB27B689A8209E054
:100EA0007B689B8A9AB27B88DB439BB213409AB2E1
:100EB0007B689A820C37BD465DF8047B704700BFA3
:100EC00080B487B000AF78600B467B8013467B70A0
:100ED00000233B610023FB600023BB6000237B6198
:100EE0007B687B617B88DBB25B09DBB23B617B8823
:100EF00003F01F03FB60FB68012202FA03F3BB60EF
:100F00003B69012B03D17B690C337B6109E03B69B1
:100F1000022B03D17B6910337B6102E07B691433C0
:100F20007B617B78002B06D07B697A691168BA688F
:100F30000A431A6006E07B697A691168BA68D2438D
:100F40000A401A601C37BD465DF8047B704700BF3D
:100F500080B487B000AF78600B467B800023FB60D5
:100F600000237B610023BB600023FB747B88DBB222
:100F70005B09DBB2BB607B8803F01F037B617B698D
:100F8000012202FA03F37B61BB68012B07D17B6866
:100F90009B899BB21A467B6913407B6111E0BB6859
:100FA000022B07D17B681B8A9BB21A467B691340D0
:100FB0007B6106E07B689B8A9BB21A467B69134083
:100FC0007B617B881B0A9BB2FB60FB68012202FAF3
:100FD00003F3FB607B681B889BB21A46FB681340D7
:100FE000FB607B69002B05D0FB68002B02D001233E
:100FF000FB7401E00023FB74FB7C18461C37BD46E4
:101000005DF8047B704700BF80B485B000AF7860A6
:101010000B467B800023FB810023BB817B881B0A5E
:10102000FB81FB89012202FA03F3BB81BB89DB430D
:101030009AB27B681A801437BD465DF8047B70470E
:1010400080B500AF0D480E4901F034FB0346002B7C
:1010500013D00A480A4901F085FB084810210022F4
:1010600001F0EEFA074840F22661FFF7CDFF054890
:1010700040F226610122FFF723FF80BDB8640240E1
:10108000008000280010014080B500AF234840F2E6
:101090002441FFF75DFF0346002B1FD01F48FFF7D9
:1010A000DBFE1F4B01221A701C4840F22441002233
:1010B000FFF706FF1B4801F0B5FA0346C3F14003F2
:1010C0009AB2194B1A801748002101F08FFA164B7B
:1010D0001B889BB21A46154B002199540F4840F2C9
:1010E0002661FFF735FF0346002B16D00B4840F270
:1010F0002661FFF789FF094840F226610022FFF7C9
:10110000DFFE064880210022FFF7B6FE08480021D6
:1011100001F06CFA074B00221A7080BD00100140EC
:10112000850800204064024086080020C80800208E
:10113000B86402408408002080B582B000AF124B32
:101140007B60124B3B6007E03B681A1D3A607A688F
:10115000111D796012681A603B680D4A9342F3D3FF
:101160000C480D494FF000028842B8BF40F8042BEC
:10117000FADBDFF82800016841F47001016000F03B
:1011800037F90837BD4680BD6476000800000020AE
:101190007C0800207C0800204409002088ED00E045
:1011A00080B400AFFEE700BF80B582B000AF034659
:1011B000FB80FB88FF2B01D9FF23FB801448022111
:1011C00001F0F0F80220FFF733FD00BF11480221C3
:1011D00001F098FB0346002BF8D0FB880D48194618
:1011E00001F082FB00BF0B48012101F08BFB03469D
:1011F000002BF8D0074801F069FB0220FFF718FD2B
:101200000348022101F0C0F80837BD4680BD00BF89
:10121000000402400038004080B588B000AF0220D2
:10122000012100F04FF94FF48040012100F086F9D0
:101230002A480D21052201F0C3F828480E21052275
:1012400001F0BEF825480F21052201F0B9F802236C
:101250003B7703237B770023BB770123FB774FF496
:101260006043BB6107F118031C48194600F0FEFFFC
:1012700001233B770223BB6107F118031748194686
:1012800000F0F4FF1548022101F07EF80023BB8036
:101290004FF48273FB8000233B8100237B8100237A
:1012A000BB814FF40073FB8118233B8200237B82B8
:1012B0000723BB823B1D0A48194601F081FA084802
:1012C000012101F0C1FA06484FF4807101F0DCFA07
:1012D0008020FFF769FF2037BD4680BD0004024033
:1012E0000038004080B58CB000AF4FF48070012111
:1012F00000F042F90120012100F0E4F80723BB626D
:10130000032387F82C30002387F82F3007F12803B8
:101310002248194600F0AAFF0023BB610023FB61AD
:1013200000233B6200237B6207F11803184600F09C
:1013300095F900233B6001233B7101237B7100235E
:10134000BB6000233B6101233B753B4614481946B3
:1013500000F030F91248032100F064FA104800212F
:101360000122002300F0CEF90D48012102220023C2
:1013700000F0C8F90A4802210322002300F0C2F954
:101380000748012100F092F90548012100F06CFAAC
:10139000034800F0A7F93037BD4680BD0000024089
:1013A0000020014080B582B000AF78607B68002BE0
:1013B00005D10E48142100F073FA034612E07B6851
:1013C000012B05D10948182100F06AFA034609E00B
:1013D0007B68022B05D105481C2100F061FA034609
:1013E00000E0002318460837BD4680BD00200140BC
:1013F00080B586B002AF0023FB810023BB810023B0
:101400007B8101F025F84FF4407001F097FA03203A
:1014100000F0EAFC00230093002040F2DF110022DC
:1014200040F23F1300F006FEFFF7E4FBFFF7F4FE87
:10143000FFF758FF0020FFF7B5FF0346FB81FB894C
:101440003A4610461E491A4601F0BEFB3B46184676
:101450000021FEF799FEFB891B099BB27B727B7A08
:101460009BB21846FFF7A0FE6420FFF7F7FB0120B0
:10147000FFF798FF0346BB81BB893A4610461049E7
:101480001A4601F0A1FB3B4618460121FEF77CFEFF
:101490006420FFF7E3FB0220FFF784FF03467B8114
:1014A0007B893A46104606491A4601F08DFB3B46B9
:1014B00018460221FEF768FE6420FFF7CFFBB9E76C
:1014C000D474000880B483B000AF78600B46FB7022
:1014D000FB78002B06D00949084B1A6B7B68134335
:1014E0000B6306E00549054B1A6B7B68DB43134031
:1014F0000B630C37BD465DF8047B70470038024033
:1015000080B483B000AF78600B46FB70FB78002B93
:1015100006D00949084B9A6B7B6813438B6306E03E
:101520000549054B9A6B7B68DB4313408B630C3793
:10153000BD465DF8047B70470038024080B483B03C
:1015400000AF78600B46FB70FB78002B06D0094992
:10155000084B1A6C7B6813430B6406E00549054B86
:101560001A6C7B68DB4313400B640C37BD465DF897
:10157000047B70470038024080B483B000AF7860CD
:101580000B46FB70FB78002B06D00949084B5A6CC0
:101590007B6813434B6406E00549054B5A6C7B6836
:1015A000DB4313404B640C37BD465DF8047B70474A
:1015B0000038024080B485B000AF78603960002305
:1015C000FB600023FB727B685B68FB60FB6823F0B9
:1015D000407323F48073FB603B681B791A023B68FD
:1015E0001B681343FA681343FB607B68FA685A6010
:1015F0007B689B68FB60FA68174B1340FB603B6895
:101600001A693B68DB681A433B689B681A433B686E
:101610005B795B001343FA681343FB607B68FA68ED
:101620009A607B68DB6AFB60FB6823F47003FB60F5
:101630003B681B7D013BDAB2FB7A1343FB72FB7AFA
:101640001B05FA681343FB607B68FA68DA6214379B
:10165000BD465DF8047B7047FDF7FFC080B485B0E0
:1016600000AF78600023FB600E4B5B68FB60FA689C
:101670000D4B1340FB607B681A687B685B681A43FC
:101680007B689B681A437B68DB681343FA681343E3
:10169000FB60044AFB6853601437BD465DF8047B69
:1016A000704700BF00230140E030FCFF80B483B0EE
:1016B00000AF78600B46FB70FB78002B06D07B6890
:1016C0009B6843F001027B689A6005E07B689B6839
:1016D00023F001027B689A600C37BD465DF8047BFD
:1016E000704700BF80B483B000AF78607B689B68B0
:1016F00043F080427B689A600C37BD465DF8047BFE
:10170000704700BF80B487B000AF786008461146CC
:101710001A460346FB700B46BB7013467B700023D2
:101720007B6100233B610023FB60FB78092B23D9FD
:101730007B68DB687B61FB78A3F10A0213465B00E0
:101740001344072202FA03F33B613B69DB437A69E6
:1017500013407B617978FB78A3F10A0213465B00A2
:10176000134401FA03F33B617A693B6913437B61DC
:101770007B687A69DA601EE07B681B697B61FA78B6
:1017800013465B001344072202FA03F33B613B69F3
:10179000DB437A6913407B617978FA7813465B0002
:1017A000134401FA03F33B617A693B6913437B619C
:1017B0007B687A691A617B689B6B7B617B6903F448
:1017C00040131B0DFB60FB68DBB2BA78D31ADBB2A7
:1017D0000233DBB21A4613469B0013441F2202FA5F
:1017E00003F33B613B69DB437A6913407B61FA7821
:1017F000FB68DBB2B978CB1ADBB20233DBB2194635
:101800000B469B000B4402FA03F33B617A693B6988
:1018100013437B617B687A699A631C37BD465DF828
:10182000047B704780B485B000AF78600B46FB70D6
:101830000023FB600023BB607B689B6BFB60FB6845
:1018400023F44013FB60FB78013BBB60BB681B05C6
:10185000FA681343FB607B68FA689A631437BD46E5
:101860005DF8047B704700BF80B483B000AF786040
:101870000B46FB70FB78002B06D07B685B6843F45B
:1018800080627B685A6005E07B685B6823F4806255
:101890007B685A600C37BD465DF8047B704700BF1B
:1018A00080B485B000AF78600B46FB700023FB600E
:1018B0007B68FB60FA78FB6813442833FB60FB68A5
:1018C0001B689BB218461437BD465DF8047B704711
:1018D00080B483B000AF78604FF020407B681B6815
:1018E0007A6851687A68926811437A68D2681143BD
:1018F0007A68126911437A68526911437A68926969
:1019000011437A68D26911437A68126A11437A687E
:10191000526A11437A68926A11437A68D26A114313
:101920007A68126B0A4340F823207B689B68082B77
:101930000DD14FF020417B681B684FF020407A6842
:10194000126850F8222042F0400241F823204FF064
:1019500020407B681B6801337A68526B11687A6893
:10196000526B5268120111437A68526B92681202EC
:1019700011437A68526BD268120411437A68526B31
:101980001269120511437A68526B526912061143AB
:101990007A68526B92690A4340F823207B68DB6ABD
:1019A000B3F5804F20D116487B681B687A68926B2C
:1019B00011687A68926B5268120111437A68926BCF
:1019C0009268120211437A68926B126912051143F0
:1019D0007A68926B5269120611437A68926B926927
:1019E0000A4340F8232006E0054A7B681B686FF035
:1019F000704142F823100C37BD465DF8047B7047F8
:101A0000040100A080B483B000AF78600B46FB7087
:101A1000FB78002B0CD04FF020414FF020427B6828
:101A200052F8233043F001027B6841F823200BE099
:101A30004FF020414FF020427B6852F82320054BA5
:101A400013407A6841F822300C37BD465DF8047BBC
:101A5000704700BFFEFF0F0080B500AF3248002185
:101A60000C2200F0ADFC304801210C2200F0A8FC53
:101A70002D4804210C2200F0A3FC2B4805210C2248
:101A800000F09EFC284807210C2200F099FC264813
:101A900008210C2200F094FC234809210C2200F0BC
:101AA0008FFC21480A210C2200F08AFC1E480B21E1
:101AB0000C2200F085FC1C480E210C2200F080FC5A
:101AC00019480F210C2200F07BFC184807210C223A
:101AD00000F076FC154808210C2200F071FC134838
:101AE00009210C2200F06CFC10480A210C2200F0A5
:101AF00067FC0E480B210C2200F062FC0B480C2105
:101B00000C2200F05DFC09480D210C2200F058FC6D
:101B100006480E210C2200F053FC04480F210C2231
:101B200000F04EFC80BD00BF000C024000100240DF
:101B300080B582B000AF01200121FFF7E1FC1A203F
:101B40000121FFF7BFFC01233B7103237B710023BD
:101B5000BB7120233B600023FB713B46274819469D
:101B600000F084FB2548202100F00EFCFFF774FFF5
:101B700003237B7102233B714CF203733B603B46B2
:101B80001F48194600F072FB4FF680733B603B46DE
:101B90001C48194600F06AFB10233B603B4618487E
:101BA000194600F063FB20233B603B46144819466E
:101BB00000F05CFB80233B603B461148194600F077
:101BC00055FB4FF400633B603B460D48194600F05F
:101BD0004DFB0B484FF4005100F0D6FB0848102194
:101BE00000F0D2FB0648202100F0CEFB0448802103
:101BF00000F0CAFB0837BD4680BD00BF00040240AC
:101C0000000C02400010024080B596B000AFFFF714
:101C10008FFF01200121FFF773FC05233B600223A6
:101C20007B600923BB600023FB6000233B61002332
:101C30007B610023BB610023FB6100233B62002327
:101C40007B621023BB620023FB6200233B63002303
:101C50007B630023BB630023FB634FF480533B642F
:101C600000237B640023BB640023FB643B463B658D
:101C70003B467B6507F11C031846FFF729FE002051
:101C80000121FFF7BFFE5837BD4680BD80B485B047
:101C900000AF78600023FB607A6813461B019B1A33
:101CA000DB001A460A4BA3FB0213D21A5208134454
:101CB0009B08BB60FB680133FB60FA68BB689A4213
:101CC00000D900E0F6E71437BD465DF8047B7047A5
:101CD0002549922480B582B000AF78607B684FF4CC
:101CE0007A7202FB03F31846FFF7D0FF0837BD46B0
:101CF00080BD00BF80B483B000AF0346FB714FF0DE
:101D0000C043FA7992B21A800C37BD465DF8047B65
:101D1000704700BF80B483B000AF0346FB80044A25
:101D2000FB8813800C37BD465DF8047B704700BF0D
:101D30000000026080B582B000AF0346FB71362020
:101D4000FFF7D8FFFB79032B3AD801A252F823F012
:101D5000611D0008791D0008911D0008A91D0008DB
:101D60000820FFF7D7FF1E4B40F23F121A801D4B91
:101D700040F2DF121A802FE06820FFF7CBFF184BEC
:101D800040F2DF121A80174B40F23F121A8023E014
:101D9000C820FFF7BFFF124B40F23F121A80114BD1
:101DA00040F2DF121A8017E0A820FFF7B3FF0C4BB8
:101DB00040F2DF121A800B4B40F23F121A800BE008
:101DC0006820FFF7A7FF064B40F2DF121A80054B91
:101DD00040F23F121A8000BF0837BD4680BD00BFE9
:101DE000000000200200002080B582B000AF034652
:101DF000FB71FFF79DFEFFF707FF0120FFF76AFF6A
:101E00005B48202100F0CEFA0520FFF763FF584819
:101E1000202100F0B9FA7820FFF75CFF1120FFF7CE
:101E200069FF3220FFF756FFC020FFF763FF0D2048
:101E3000FFF770FF0D20FFF76DFFC120FFF75AFF7E
:101E40004720FFF767FF0020FFF764FFC220FFF77E
:101E500051FF0020FFF75EFFC520FFF74BFF00207A
:101E6000FFF758FF4820FFF755FFB620FFF742FF66
:101E70000020FFF74FFF4220FFF74CFF3B20FFF70A
:101E800049FFE020FFF736FF0F20FFF743FF242034
:101E9000FFF740FF1C20FFF73DFF0A20FFF73AFF46
:101EA0000F20FFF737FF0820FFF734FF4320FFF72D
:101EB00031FF8820FFF72EFF3220FFF72BFF0F2086
:101EC000FFF728FF1020FFF725FF0620FFF722FF6E
:101ED0000F20FFF71FFF0720FFF71CFF0020FFF771
:101EE00019FFE120FFF706FF0F20FFF713FF38204F
:101EF000FFF710FF3020FFF70DFF0920FFF70AFF63
:101F00000F20FFF707FF0F20FFF704FF4E20FFF71A
:101F100001FF7720FFF7FEFE3C20FFF7FBFE0720C6
:101F2000FFF7F8FE1020FFF7F5FE0520FFF7F2FEA1
:101F30002320FFF7EFFE1B20FFF7ECFE0020FFF74A
:101F4000E9FE2020FFF7D6FE0020FFF7E3FEFB7935
:101F50001846FFF7EFFE3A20FFF7CCFE5520FFF7BB
:101F6000D9FE2920FFF7C6FE0837BD4680BD00BF59
:101F70000004024080B584B000AF0346FB80FB88BC
:101F80001B0A9BB2FB73FB88BB73FB7B9BB218469F
:101F9000FFF7C0FEBB7B9BB21846FFF7BBFE1037B6
:101FA000BD4680BD80B582B000AF03460A46FB80C7
:101FB0001346BB802A20FFF79DFEFB881846FFF7DB
:101FC000D9FFBB881846FFF7D5FF0837BD4680BD4F
:101FD00080B582B000AF03460A46FB801346BB8043
:101FE0002B20FFF787FEFB881846FFF7C3FFBB884F
:101FF0001846FFF7BFFF0837BD4680BD80B483B0E9
:1020000000AF0346FB800B46BB8013467B80FA88FB
:10201000BB889A4201D2BB8806E0FA887B889A4244
:1020200001D97B8800E0FB8818460C37BD465DF877
:10203000047B704790B585B000AF04460846114652
:102040001A462346FB800346BB800B467B80134623
:102050003B800023BB600023FB60FA88BB889A4268
:102060000BD9FA88BB885340FB80FA88BB88534061
:10207000BB80FA88BB885340FB807A883B889A42B1
:102080000BD97A883B8853407B807A883B885340C1
:102090003B807A883B8853407B802A4B1B88FA8898
:1020A000104600211A46FFF7A9FF0346FB80254B87
:1020B0001B88BA88104600211A46FFF79FFF034687
:1020C000BB80214B1B887A88104600211A46FFF7F7
:1020D00095FF03467B801C4B1B883A8810460021E5
:1020E0001A46FFF78BFF03463B80BA88FB88D31A5A
:1020F0000133BB603A887B88D31A5A1CBB6802FB49
:1021000003F3BB60FA88BB8810461946FFF74AFF05
:102110007A883B8810461946FFF75AFF2C20FFF7B4
:10212000E9FD0023FB6006E03B8C1846FFF722FF29
:10213000FB680133FB60FA68BB689A42F4DB143732
:10214000BD4690BD000000200200002090B585B083
:1021500002AF0446084611461A462346FB80034652
:10216000BB800B467B8013463B807B88002B15D0C1
:102170003B88002B12D0FA887B8813449BB2013B2A
:1021800099B2BA883B8813449BB2013B9CB2F88851
:10219000BA883B8B00932346FFF74CFF0C37BD46B4
:1021A00090BD00BF90B585B000AF0446084611460B
:1021B0001A462346FB800346BB800B467B801346B2
:1021C0003B80FA887B8813449BB2FA8810461946F4
:1021D000FFF7E8FEBA88BB8810461946FFF7F8FEFD
:1021E0002C20FFF787FD0023FB6006E03B881846A4
:1021F000FFF7C0FEFB680133FB607A88FB689A42F8
:10220000F4DC1437BD4690BD90B585B000AF0446F0
:10221000084611461A462346FB800346BB800B4600
:102220007B8013463B80FA88FB8810461946FFF7EF
:10223000B9FEBA887B8813449BB2BA881046194607
:10224000FFF7C6FE2C20FFF755FD0023FB6006E0DC
:102250003B881846FFF78EFEFB680133FB607A88E7
:10226000FB689A42F4DC1437BD4690BD80B487B059
:1022700000AF7860396000237B6100233B6100235D
:10228000FB6000237B6176E07B69012202FA03F3A5
:102290003B613B681A683B691340FB60FA683B6925
:1022A0009A4265D17B681A687B695B0019460323F3
:1022B0008B40DB431A407B681A607B681A683B6876
:1022C0001B7919467B695B0001FA03F31A437B68AB
:1022D0001A603B681B79012B03D03B681B79022BEA
:1022E0002ED17B689A687B695B00194603238B407B
:1022F000DB431A407B689A607B689A683B685B792D
:1023000019467B695B0001FA03F31A437B689A6004
:102310007B685A687B699BB2194601238B40DB437B
:102320001A407B685A607B685B683A68927911460C
:102330007A6992B201FA02F292B21A437B685A6049
:102340007B68DA687B699BB25B00032101FA03F3C7
:10235000DB431A407B68DA607B68DA683B68DB79CC
:1023600019467B695B0001FA03F31A437B68DA6064
:102370007B6901337B617B690F2B85D91C37BD4697
:102380005DF8047B704700BF80B483B000AF786015
:102390000B467B807B687A881A830C37BD465DF8D4
:1023A000047B704780B483B000AF78600B467B80BD
:1023B0007B687A885A830C37BD465DF8047B70478A
:1023C00080B485B000AF78600B467B8013467B708D
:1023D0000023FB600023BB607B787A8802F0070251
:1023E00092009340FB607B88DB089BB218467B8899
:1023F000DB089BB21A467B68083253F822207B88A0
:1024000003F007039B0019460F238B40DB4302EACE
:1024100003017B6800F1080243F822107B88DB0887
:102420009BB21A467B68083253F82220FB6813439C
:10243000BB607B88DB089BB21A467B680832B968B0
:1024400043F822101437BD465DF8047B704700BF87
:1024500080B500AF154A154BD3F8883043F47003AC
:10246000C2F88830124A124B1B6843F00103136014
:102470000F4B00229A600E4A0D4B1B6823F08473A9
:1024800023F4803313600A4B0A4A5A60084A084B07
:102490001B6823F480231360054B0022DA6000F0F0
:1024A0000BF8024B4FF000629A6080BD00ED00E037
:1024B000003802401030002480B483B000AF002305
:1024C0007B6000233B60354A344B1B6843F4803308
:1024D0001360324B1B6803F400333B607B680133AD
:1024E0007B603B68002B03D17B68B3F5A06FF0D114
:1024F0002A4B1B6803F40033002B02D001233B60FE
:1025000001E000233B603B68012B42D1234A234B6F
:102510001B6C43F080531364214A214B1B6843F426
:10252000804313601D4A1D4B9B6893601B4A1B4BE5
:102530009B6843F400439360184A184B9B6843F42C
:10254000A0539360154B174A5A60144A134B1B68EB
:1025500043F08073136000BF104B1B6803F00073DF
:10256000002BF9D0104B40F205621A600B4A0B4B5E
:102570009B6823F003039360084A084B9B6843F071
:102580000203936000BF054B9B6803F00C03082B0C
:10259000F9D10C37BD465DF8047B70470038024026
:1025A0000070004008544007003C024080B485B0F1
:1025B00000AF78600B4B1B68002B02D1094B0A4A15
:1025C0001A60084B1B68FB60064B1A687B68134453
:1025D000044A1360FB6818461437BD465DF8047B57
:1025E000704700BF080900204889002080B483B0EC
:1025F00000AF78600B46FB70FB78002B06D07B6841
:102600001B6843F001027B681A6005E07B681B6869
:1026100023F001027B681A600C37BD465DF8047B2D
:10262000704700BF80B483B000AF78607B685B68A0
:102630009BB218460C37BD465DF8047B704700BF5F
:1026400080B485B000AFF860B9601346FB71BB6819
:1026500003F08003002B0FD0FB79002B06D0FB6822
:102660005B6943F08002FB685A6105E0FB685B69C7
:1026700023F08002FB685A61BB68802B14D0FB7981
:10268000002B08D0FB681A68BB6803F01E031A43CE
:10269000FB681A6008E0FB681A68BB6803F01E0359
:1026A000DB431A40FB681A601437BD465DF8047BB3
:1026B000704700BF80B487B000AF786039600023F6
:1026C000FB750023FB600023BB607B68224A9342BA
:1026D00002D8224B3B6101E0214B3B613B6823F078
:1026E000F02323F0C313002B0AD03B68DB0A03F06E
:1026F0001E03FB607B681A68FB681340BB6004E044
:102700007B685B6903F08003BB603B6803F00053A8
:10271000002B03D03B695B68FB6002E03B691B68F0
:10272000FB60FB6823F0F02323F08213FB60FA6860
:102730003B681340002B05D0BB68002B02D001235F
:10274000FB7501E00023FB75FB7D18461C37BD4679
:102750005DF8047B704700BF0F64024000600240D8
:102760000064024080B485B000AF786039607B6857
:10277000104A934202D8104BFB6001E00F4BFB6004
:102780003B6803F00053002B07D03B6823F0F02395
:1027900023F08213FA68D36006E03B6823F0F0234D
:1027A00023F08213FA6893601437BD465DF8047B0A
:1027B000704700BF0F6402400060024000640240A6
:1027C00080B485B000AF786039600023FB817B68FE
:1027D0001B88FB81FB8903F44153FB813B681A880A
:1027E0003B685B8813439AB23B689B8813439AB259
:1027F0003B68DB8813439AB23B681B8913439AB248
:102800003B685B8913439AB23B689B8913439AB236
:102810003B68DB8913439AB2FB891343FB817B68D6
:10282000FA891A807B689B8B9BB223F400639AB26F
:102830007B689A833B681A8A7B681A821437BD4684
:102840005DF8047B704700BF80B483B000AF786050
:102850000B46FB70FB78002B08D07B681B889BB273
:1028600043F040039AB27B681A8007E07B681B88BC
:102870009BB223F040039AB27B681A800C37BD46A6
:102880005DF8047B704700BF80B483B000AF786010
:102890000B467B807B884FF6FF62934208D07B68B3
:1028A0001B889BB243F480739AB27B681A8007E05E
:1028B0007B681B889BB223F480739AB27B681A8072
:1028C0000C37BD465DF8047B704700BF80B483B011
:1028D00000AF78607B689B899BB218460C37BD4679
:1028E0005DF8047B704700BF80B483B000AF7860B0
:1028F0000B467B807B687A889A810C37BD465DF8F1
:10290000047B704780B485B000AF78600B467B8055
:102910000023FB737B681B899AB27B8813409BB2B0
:10292000002B02D00123FB7301E00023FB73FB7B30
:1029300018461437BD465DF8047B704780B483B0F9
:1029400000AF7860054A7B6843F0BF6343F400330F
:10295000D3600C37BD465DF8047B704700ED00E0A6
:1029600080B485B000AF786039600023FB817B685C
:102970001B88FB817B68284A934213D07B68274AD7
:1029800093420FD07B68B3F1804F0BD07B68244A11
:10299000934207D07B68234A934203D07B68224A44
:1029A000934208D1FB8923F07003FB813B685A886E
:1029B000FB891343FB817B681C4A93420CD07B68E4
:1029C0001B4A934208D0FB8923F44073FB813B6888
:1029D0001A89FB891343FB817B68FA891A803B685B
:1029E0005A687B68DA623B681A887B681A857B685C
:1029F000094A934203D07B68084A934204D13B685A
:102A00009B7A9AB27B681A867B6801229A82143775
:102A1000BD465DF8047B70470000014000040140A2
:102A20000004004000080040000C0040001000407E
:102A30000014004080B483B000AF78600B46FB7098
:102A4000FB78002B08D07B681B889BB243F0010306
:102A50009AB27B681A8007E07B681B889BB223F0E0
:102A600001039AB27B681A800C37BD465DF8047B7F
:102A7000704700BF80B483B000AF78600B467B80A6
:102A80007B88DB439AB27B681A820C37BD465DF8BF
:102A9000047B7047844641EA000313F003036DD1C1
:102AA000403A41D351F8043B40F8043B51F8043B11
:102AB00040F8043B51F8043B40F8043B51F8043B18
:102AC00040F8043B51F8043B40F8043B51F8043B08
:102AD00040F8043B51F8043B40F8043B51F8043BF8
:102AE00040F8043B51F8043B40F8043B51F8043BE8
:102AF00040F8043B51F8043B40F8043B51F8043BD8
:102B000040F8043B51F8043B40F8043B51F8043BC7
:102B100040F8043B51F8043B40F8043B51F8043BB7
:102B200040F8043B403ABDD2303211D351F8043B57
:102B300040F8043B51F8043B40F8043B51F8043B97
:102B400040F8043B51F8043B40F8043B103AEDD206
:102B50000C3205D351F8043B40F8043B043AF9D257
:102B6000043208D0D2071CBF11F8013B00F8013B2A
:102B700001D30B8803806046704700BF082A13D337
:102B80008B078DD010F003038AD0C3F10403D21A4F
:102B9000DB071CBF11F8013B00F8013B80D331F883
:102BA000023B20F8023B7BE7043AD9D3013A11F803
:102BB000013B00F8013BF9D20B7803704B7843706E
:102BC0008B788370604670470EB4F0B59CB021AB33
:102BD0000F4953F8042B019305466FF00044086831
:102BE00002954FF402774FF6FF7602A90695ADF8ED
:102BF000147004940794ADF8166000F00DF8029B71
:102C000000221A701CB0BDE8F04003B0704700BF4E
:102C100030040020000000002DE9F04FBFB08946CD
:102C200006920A93049002F04BFA03681393184635
:102C300003F05CF8B9F80C3014901A0604D5D9F8F2
:102C40001030002B01F0A1809FED997B8DED107B62
:102C500000232EAF0F932393229312931593079380
:102C600021973C464E46069D2B78002B00F0A9800C
:102C7000252B02D1A5E0252B03D015F8013F002B11
:102C8000F9D1069BEB1A73B1229A2399069820601A
:102C900001321944072A63602391229272DC0834BE
:102CA000079A1A4407922B78002B00F0CB87002359
:102CB000691C6D788DF867301A46089303934FF0BE
:102CC000FF3A4B1CA5F12001582900F2E483DFE80C
:102CD00011F07702E203E2037B03E203E203E20383
:102CE000E203E203E203F7021402E203FB0118022B
:102CF000E2038203C102C102C102C102C102C102D8
:102D0000C102C102C102E203E203E203E203E20301
:102D1000E203E203E203E203E203D0029103E203EF
:102D20009103E203E203E203E2037403E203E2033A
:102D30000C03E203E203E203E203E2032A03E203F9
:102D4000E2034403E203E203E203E203E203E203F9
:102D5000E203E203E203E2035F0333029103910320
:102D6000910305033302E203E203ED02E20385026D
:102D70000202CB037E02E2039902E2037A00E2033D
:102D8000E203510204980393314621AA02F0DCFFCA
:102D900050B93C46039B83E70498314621AA02F0D0
:102DA000D3FF002800F08C81B146B9F80C3013F045
:102DB000400F079B18BF4FF0FF3318463FB0BDE8E8
:102DC000F08F069D6FE70693039B980640F1B4824F
:102DD0000A9B03F1070929F0070303F10802D3E96D
:102DE00000890A9201234FF0000C8DF867C0CDF8DE
:102DF00034A0BAF1000F03DB039A22F080020392A1
:102E000058EA090240F05783BAF1000F00F05C84E1
:102E1000012B00F05A83022B00F09A8439464FEAC6
:102E2000D80242EA49724FEAD90008F00703814606
:102E30009046303358EA090201F8013DEFD1039A78
:102E40000C91D20700F16E857B1A0993099A92457D
:102E50005346B8BF1346059300230E93BCF1000FF1
:102E600002D0059B01330593039B13F002030B93E0
:102E700002D0059B02330593039B13F0840940F0B5
:102E80001783089B059AC2EB0308B8F1000F40F3C3
:102E90000F83B8F1100F2399229ADFF81CA030DDC0
:102EA00053464FF0100BC246A8461D460DE000BF2A
:102EB0000000000000000000D8740008AAF1100A09
:102EC000BAF1100F04F1080417DD01321031072A9E
:102ED0002391229284E82008F0DD0498314621AA4B
:102EE00002F032FF00287FF45FAFAAF1100ABAF1B6
:102EF000100F2399229A3C46E7DC2B464546D046E4
:102F00009A46013208EB010B072ACDF88CB02292C9
:102F1000C4F800A0C4F8048000F37E849DF867C064
:102F20000834BCF1000F0FD0229B01330BF1010BD1
:102F30000DF167010122072BCDF88CB0229384E8B4
:102F4000060000F3EA8308340B9B73B1229B013324
:102F50000BF1020B1AA90222072BCDF88CB0229399
:102F600084E8060000F3CD830834B9F1800F00F047
:102F700015830D9B099AC2EB030ABAF1000F3CDDE1
:102F8000BAF1100F229ADFF864942BDD49465B46B4
:102F9000A9464FF01008DDF810B00D4606E0AAF182
:102FA000100ABAF1100F04F1080417DD01321033D2
:102FB000072A2393229284E82001F0DD5846314607
:102FC00021AA02F0C1FE00287FF4EEAEAAF1100A99
:102FD000BAF1100F239B229A3C46E7DC9B462B4616
:102FE0004D4699460132D344072ACDF88CB022923F
:102FF00084E8000600F379830834039BD90500F1C7
:103000007082229B09990C9A226001338B44072B12
:10301000CDF88CB06160229300F34A830834039B9F
:103020005A0741D5089B059A9D1A002D3CDD102DAD
:10303000229BDFF8BCA323DD4FF010085A46DDF8D1
:10304000109004E0103D102D04F1080417DD013349
:103050001032072B23922293C4F800A0C4F80480F6
:10306000F0DD4846314621AA02F06EFE00287FF4CA
:103070009BAE103D102D239A229B3C46E7DC9346E5
:103080000133AB44072BCDF88CB02293C4F800A0D9
:10309000656009DD0498314621AA02F055FE00283A
:1030A0007FF482AEDDF88CB0079B059A08998A42BE
:1030B000ACBF9B185B180793BBF1000F7FF46CAE9D
:1030C000002322933C46CEE5194603981D7840F034
:1030D00004000390F5E50693039B13F0200300F032
:1030E0000E810A9B03F1070929F0070303F1080287
:1030F000D3E900890A92002375E61D7819462B2230
:10310000DFE51D782A2D03F1010100F0B887A5F154
:10311000300009280B464FF0000A3FF6D3AD13F8F4
:10312000015B0AEB8A0A00EB4A0AA5F13000092884
:10313000F5D94AEAEA7AC5E50693039B8DF867203C
:103140009B0640F1A1800A9B03F1070929F00709BA
:10315000D9E9002309F108010A9190469946002A0D
:1031600073F10003C0F20E849DF867C0CDF834A05F
:1031700001233EE606939B4B1293039B8DF8672039
:103180009B0640F1F3800A9B03F1070929F007032E
:10319000D3E9008903F108020A92039BD90740F1A1
:1031A000F58058EA090300F0F180039A8DF8695020
:1031B000302342F002028DF868300392022312E6B7
:1031C0001D781946002A7FF47CAD202279E5039909
:1031D00041F0200103911D78194672E50693039B87
:1031E0008DF867209A0640F1B08407990A9A4FEA51
:1031F000E179136808468846043249460A92C3E9D1
:10320000000130E50A9A069313680C934FF0000B07
:103210008DF867B002F10409002B00F04686BAF180
:10322000000F0C98C0F2F6855946524602F0DAF9C2
:10323000002800F077860C9BCDF834B0C31A0993B0
:10324000CDF8289023EAE3730593CDF838B09DF8C4
:1032500067C003E6A5F13000002113F8015B01EB24
:10326000810100EB4101A5F130000928F5D9089151
:1032700028E50693039B8DF8672043F01003039322
:10328000039B9B063FF55FAF039BD80600F16B8362
:10329000039B590640F167830A99B1F90080043114
:1032A0004FEAE87942464B460A9158E71D78039960
:1032B0006C2D00F0D38441F010010391194600E514
:1032C0000A9D2968089108460028294601F1040151
:1032D000C0F2CB840A911D781946F2E4039941F0BB
:1032E000400103911D781946EBE40693039B43F0DC
:1032F00010030393039B13F020037FF4F2AE039AB1
:1033000012F0100240F01C83039B13F0400300F006
:1033100017830A9913460A460432B1F800800A92CC
:103320004FF000095FE50693039B43F010030393FE
:10333000039B98063FF54CAD039BD90600F109832A
:10334000039B5A0640F105830A9AB2F800800432C2
:103350004FF0000901230A9245E50693224B129390
:10336000039B8DF867209B063FF50DAF039BD806A6
:1033700040F1DC830A9A13461B689846039B04328B
:10338000D9070A924FF000093FF50BAF02232AE557
:103390000A9906930A688DF89020002301220431CF
:1033A0009C4605920A918DF8673024ABCDF834C065
:1033B000CDF838C009920C9356E5039941F0080105
:1033C00003911D7819467CE4039941F001010391B2
:1033D0001D78194675E4039941F0800103911D7829
:1033E00019466EE40C750008F87400082C75000886
:1033F000D87400080693039B8DF8672013F0080F1C
:103400000A9BD34603F1070900F0868329F00703DE
:1034100093ED007B8DED107B03F108020A929DED88
:10342000100B02F023FC012840F05A83DDE9100163
:103430000022002303F032FD002840F06B859DF848
:1034400067C0039BBD4ADFF800E323F080030393CA
:10345000134603210020472DD8BF734605910D90D8
:103460000C9309910E90F9E40A980399069330227F
:1034700003688DF868200246782541F00201043285
:103480009846AF4B129303910A924FF000098DF8C2
:1034900069500223A7E406938DF86720002D00F001
:1034A000D183002301229C4605928DF890507AE743
:1034B000DDF88CB035E5012B7FF4ADACB9F1000F30
:1034C00008BFB8F10A0F80F00D820DF1F80B08F17A
:1034D00030080BF8418DCBEB07030993CDF830B0E2
:1034E000B4E4652D40F3A080DDE910010022002343
:1034F00003F0CAFC002800F04481229B914A22601C
:1035000001330BF1010B0122072BCDF88CB0229374
:10351000626000F33F8308341B9B0F9A934203DBE6
:10352000039BDA077FF57BAD229B1499139A2260E7
:1035300001338B44072BCDF88CB06160229300F3EC
:103540009B8308340F9B5D1E002D7FF768AD102D07
:10355000229BDFF8F89140F3B9814FF010085A46EA
:10356000DDF810A004E00834103D102D40F3AD81CB
:1035700001331032072B23922293C4F80090C4F831
:103580000480F0DD5046314621AA02F0DDFB002820
:103590007FF40AAC239A229B3C46E5E7089B059AF8
:1035A000C2EB030ABAF1000F7FF7E3ACBAF1100FD8
:1035B000229ADFF898912BDD49465B46A9464FF0E9
:1035C0001008DDF810B00D4606E0AAF1100ABAF1B5
:1035D000100F04F1080417DD01321033072A23937A
:1035E000229284E82001F0DD5846314621AA02F0FB
:1035F000ABFB00287FF4D8ABAAF1100ABAF1100F88
:10360000239B229A3C46E7DC9B462B464D46994637
:103610000132D344072ACDF88CB0229284E8000608
:1036200000F351820834A4E40F9B229D012B40F348
:103630001F820C9B236001350BF101030122072D32
:1036400023932295626000F3258208341499616007
:10365000013503EB010B072D139BCDF88CB02295A0
:10366000236000F3238208340023DDE910010022E7
:1036700003F00AFC0F9B002840F0DD800C9A013B10
:10368000013501329B44072D2295CDF88CB0226084
:10369000636000F30D810834159A6260013593442C
:1036A0001DAB072DCDF88CB0229523607FF7B6AC0B
:1036B0000498314621AA02F047FB00287FF474AB3E
:1036C000DDF88CB03C46AAE4002B32D1039BD8072E
:1036D0002FD50DF1F80B30230BF8413DCBEB070351
:1036E0000993CDF830B0FFF7B1BB0498314621AA59
:1036F00002F02AFB00287FF457ABDDF88CB03C4683
:103700007BE40498314621AA02F01EFB00287FF4D6
:103710004BABDDF88CB03C4627E40498314621AA37
:1037200002F012FB00287FF43FABDDF88CB03C4682
:103730000AE4CDF824A00C97FFF788BBEC740008CE
:103740000C75000828750008E87400082C7500083E
:103750001298BB464FEA181308F00F0143EA0973A9
:103760004FEA191298469146435C0BF8013D58EA1E
:103770000903EFD15B46CDF830B0FB1A0993FFF790
:1037800065BB1B9D002D40F311820F9A0E998A4252
:103790001346A8BF0B461D460C99002D01EB020AEB
:1037A0000BDD229B21600133AB44072BCDF88CB09D
:1037B0006560229300F3558308340E9B002DA8BF4B
:1037C0005B1B002B1D4640F3F580102D229BDFF87C
:1037D000089640F3D2815A464FF01008DDF810B039
:1037E00004E00834103D102D40F3C681013310323F
:1037F000072B23922293C4F80090C4F80480F0DDD4
:103800005846314621AA02F09FFA00287FF4CCAA3C
:10381000239A229B3C46E5E70498314621AA02F010
:1038200093FA00287FF4C0AA9DF867C0DDF88CB039
:103830003C46FFF776BB03F1FF38B8F1000F7FF786
:103840002BAFB8F1100FDFF8909525DD5B464FF0F8
:10385000100ADDF810B006E0A8F11008B8F1100F5A
:1038600004F1080417DD01351033072D2393229549
:1038700084E80006F0DD5846314621AA02F064FAD9
:1038800000287FF491AAA8F11008B8F1100F239B2B
:10389000229D3C46E7DC9B460135C344072DCDF80D
:1038A0008CB02295C4F80090C4F804807FF7F3AE82
:1038B0000498314621AA02F047FA00287FF474AA3E
:1038C000DDF88CB0229D3C46E6E693460133AB44DE
:1038D000072BCDF88CB02293C4F8009065607FF779
:1038E0009DABE5E6BB46CDF814C0404649460A22EA
:1038F000002303F023FB3032404649460BF8012DEC
:1039000000230A2203F01AFB8046894658EA09037D
:10391000EBD15B46FB1ADDF814C0CDF830B009934B
:10392000FFF794BA302B0C9B3FF427AF013B1A46AC
:103930000C93BA1A3023099201F8013CFFF786BABA
:103940000A990A6804310A9190464FF00009FFF77E
:103950004ABA0A990A68043101230A9190464FF045
:103960000009FFF740BA0A9A136898464FEAE379CC
:103970001346043342460A93002A4B4673F1000370
:10398000BFF6F2AB4FF02D0CD8F1000869EB4909F6
:103990008DF867C0CDF834A00123FFF72ABA049848
:1039A000314621AA02F0D0F900287FF4FDA9DDF804
:1039B0008CB03C460C9A0E991B9B0A4490460F9A79
:1039C000934246DB039AD00743D40F9AC8EB0A050B
:1039D000D31A9D42A8BF1D46002D0CDD229AC4F8C3
:1039E00000800132AB44072ACDF88CB0656022928A
:1039F00000F36F820834002DACBF5D1B1D46002D07
:103A00007FF70DAB102D229BDFF8CC937FF75EAFD5
:103A10004FF010085A46DDF810A004E00834103DBD
:103A2000102D7FF752AF01331032072B23922293D0
:103A3000C4F80090C4F80480F0DD5046314621AA55
:103A400002F082F900287FF4AFA9239A229B3C461A
:103A5000E5E7229A14981399216001328344072ADA
:103A6000CDF88CB06060229200F307820834ACE796
:103A7000039BD9073FF5DDAD0C9B236001350BF1AE
:103A8000010B0123072DCDF88CB0229563607FF7E1
:103A900002AE0DE70498314621AA02F055F900283C
:103AA0007FF482A9239B229D3C46CFE504983146B2
:103AB00021AA02F049F900287FF476A9DDF88CB03C
:103AC000229D3C46D0E50498314621AA02F03CF9FB
:103AD00000287FF469A9DDF88CB03C46FFF749BAAD
:103AE0009DED100B02F0C2F8002840F0D180864610
:103AF000B64AB74B0D9003989DF867C0CDF838E0F3
:103B0000032120F08000472DD8BF1A46059103906D
:103B10000C920991FFF7A2B929F0070999ED007BF2
:103B200009F108038DED107B0A9378E4039B0A9A50
:103B300013F0400F13463FF41FAC0433B2F800807B
:103B40000A934FF00009FFF728BB039BDB060BD459
:103B5000039B5D0608D50A9A136804320A92BDF8E1
:103B60001C201A80FFF77FB80A9A136804320A9261
:103B7000079A1A60FFF777B893460133AB44072BD7
:103B8000CDF88CB02293C4F8009065603FF707AF82
:103B900008340FE70498314621AA02F0D5F800282E
:103BA0007FF402A9DDF88CB03C46B5E4229B894A3B
:103BB000226001330BF1010B0122072BCDF88CB0F1
:103BC0002293626000F3F18008342DB90F9B1BB97A
:103BD000039BDB077FF523AA229B1498139A22608C
:103BE00001330BEB0001072B23916060229300F35C
:103BF000EF8104F108026D42002D40F3FA80102D90
:103C0000DFF8D49140F346811024DDF8108004E001
:103C10000832103D102D40F33D8101331031072B48
:103C200023912293C2F800905460F1DD4046314662
:103C300021AA02F089F800287FF4B6A82399229BD4
:103C40003A46E6E7239BB146002B3FF4AEA8049822
:103C5000314621AA02F078F8FFF7A7B841F0200119
:103C600003915D78591CFFF72CB808980A914042DF
:103C700008901946FFF729BA0498314621AA02F0A4
:103C800063F800287FF490A8DDF88CB03C4659E436
:103C900025F02003BAF1FF3F059300F09380472BF6
:103CA00005D1BAF1000F14BFD3464FF0010B119BA1
:103CB000039A002B42F480720B92C0F2A4819DED16
:103CC000107B8DED167B4FF0000A662D00F0AC8066
:103CD000462D00F0A980059B0498452B0CBF0BF1E5
:103CE0000109D9461CAA1FAB8DE80C009DED160BEF
:103CF00002214A461BAB00F08FFA672D0C9002D0D0
:103D0000472D40F09F80039BDB0740F192810C9B85
:103D100003EB0908DDE916010022002303F0B4F8E3
:103D2000002840F0FD801F9B984506D930215A1C81
:103D30001F9219701F9B9845F9D80C9A9B1A0F93E4
:103D4000059B472B1B9B00F0DE80652D40F3F88020
:103D5000662D0E9300F060810F9B0E9A934200F344
:103D60004481039BD90700F1668122EAE27309923C
:103D7000BAF1000F40F0BC8005930B9B0393CDF884
:103D800034A09DF867C0FFF769B80498402101F09E
:103D90009BF9C9F80000C9F81000002800F09781CD
:103DA0004023C9F81430FEF74FBF0498314621AACA
:103DB00001F0CAFF00287EF4F7AF1B9DDDF88CB040
:103DC0003C4602E74FF0060B71E700BFF4740008B1
:103DD000F0740008287500082C7500080498314616
:103DE00021AA01F0B1FF00287EF4DEAF2399229BC7
:103DF0003A460F9C5460013301EB040B072B0C99DE
:103E0000CDF88CB0229311603FF752AC02F1080458
:103E1000FFF705B9CDF834B001F068FFCDF8289070
:103E200009900346FFF70EBA1CAA1FAB8DE80C00E1
:103E300004989DED160B03215A461BAB00F0ECF9DC
:103E4000D9460C900C9B03EB0908059B462B7FF48D
:103E500061AF0C9B1B78302B00F003811B9B9844B7
:103E600058E70498314621AA01F06EFF00287EF43D
:103E70009BAFDDF88CB03C469FE40498314621AA04
:103E800001F062FF00287EF48FAF1B9BDDF88CB041
:103E90003C469AE501332944072B23912293C2F82B
:103EA000009055609ADC0832A3E75346062B28BFE2
:103EB0000623099323EAE373DDF830C00593874BAB
:103EC000CDF82890CDF834C0CDF838C00C93FEF76B
:103ED000C5BF0498314621AA01F036FF00287EF4C0
:103EE00063AF1B9B0F9ADDF88CB0D31A3C4682E57A
:103EF00005930B9B03934FF02D0C00238DF867C0A7
:103F00000D93FEF7AEBFDA1C19DB9B4517DB0E9352
:103F1000672521E74FF02D0C8DF867C0FFF791BAA8
:103F200043460AE72AEAEA730D90CDF828900E90EE
:103F30009DF867C00593CDF824A0FEF78FBF023D22
:103F4000013B002B1B93BABF5B422D222B22092B76
:103F50008DF874508DF875207BDD0DF1830E704661
:103F60005F4A82FB0321DA17C2EBA10202EB820156
:103F7000A3EB410303F13001092A134600F8011DA8
:103F8000EEDC02463033D9B202F8011D964540F20C
:103F90009B800DF17602034601E013F8011B02F845
:103FA000011B7345F9D121AB1B1A0DF176021344A5
:103FB0001DAA9B1A0F9A1593012A1344099374DDC5
:103FC000099B0022013309930E9223EAE373CFE6A3
:103FD0000498314621AA01F0B7FE00287EF4E4AE31
:103FE0001B9D2399229B3A4605E60E9B002BD8BFCA
:103FF000C3F102080F9BC8BF4FF001084344099367
:1040000023EAE373B4E6DDE9100101F10043169001
:1040100017934FF02D0A58E6002B3DDDBBF1000F42
:104020000FD1039BDB070CD40E9A099222EAE273AC
:104030009EE61F9B81E60E9B0133099323EAE373FF
:1040400096E60E9B0BF101084344099323EAE373C0
:104050008EE6303330228DF877308DF876201EAB27
:10406000A6E7DDE916010022002302F00DFF00287B
:104070007FF4F4AEC9F101031B9398444AE60A9D0C
:10408000D5F800A028460430BAF1000F5D780A90F8
:10409000BEF617AEFEF713BEBBF1000F0ED1039BA9
:1040A000D8070BD40123099362E6039B13F00103A5
:1040B00086D10E93099B23EAE37359E60BF10203C1
:1040C000099323EAE37353E60DF1760370E7049A4C
:1040D0000C2313604FF0FF30FEF770BE2075000810
:1040E00067666666AFF3008002690B69934200F36E
:1040F0008F802DE9F04F03F1FF3801F1140700F133
:10410000140B57F828205BF828304FEA880483B056
:104110000132B3FBF2F90BEB0403009407EB040A42
:104120000193B9F1000F3BD000263246BC46DE4673
:1041300034465CF8046BDEF80050B3B2360C03FB77
:10414000094406FB09F606EB1446A3B2D31AB4B22F
:1041500013FA85F3C4EB154404EB23449BB243EA02
:104160000443E2454FEA24424EF8043B4FEA16442A
:10417000DFD2009B5BF8033093B9019C231F9B4562
:104180000CD254F8043C4BB9A4F1080302E01A68BD
:10419000043B1AB99B4508F1FF38F8D3C0F81080EA
:1041A000044601F077FC00282EDB09F101095D4689
:1041B000002357F8041B28688AB29A1A090C12FACD
:1041C00080F2C1EB104303EB224391B241EA034179
:1041D000BA4545F8041B4FEA2343EAD25BF828208E
:1041E0000BEB880382B91A1F93450BD253F8042CAA
:1041F00042B9083B02E01A68043B1AB99B4508F132
:10420000FF38F8D3C4F81080484603B0BDE8F08FFB
:1042100000207047000000002DE9F04F99B00446DF
:104220000391016C229D049392468DED000B41B1E8
:10423000426C4A60012393408B6001F047FA0023EF
:104240002364DDE90023002B994636DB00232B6035
:10425000A54B1A4609EA0303934217D0DDE900672C
:10426000002200233046394602F00EFE8046002828
:104270002BD0049A01231360239B002B00F0CC80E9
:104280009A481860013819B0BDE8F08F049A42F2DC
:104290000F731360009B002B00F0A7809448239BB2
:1042A000002BF0D0C378002B00F0B88000F1080399
:1042B000239A136019B0BDE8F08F019A012322F010
:1042C00000492B60CDF80490C2E7204647EC106B04
:1042D00017A916AA01F06CFC5FEA1955834640F055
:1042E0008D80DDF85880179D6FF4826345449D42B0
:1042F000C0F29E827F4A521B09FA02F9009A05F227
:10430000124322FA03F049EA000002F0DFFA012327
:10431000013DA1F1F8710F930022774B02F098F95B
:104320006BA3D3E9002302F047FB6BA3D3E900237F
:1043300002F090F9064628460F4602F0D7FA68A325
:10434000D3E9002302F038FB02460B4630463946DB
:1043500002F080F906460F4602F0C8FD3946059086
:1043600000223046002302F099FD002840F0AB8186
:10437000059B162B00F2A481059A604B03EBC20348
:10438000D3E90001DDE9002302F0A6FD002800F0DA
:104390005582059B013B059300230D93C5EB080552
:1043A0006B1E069300F1A68100230793059B002B4B
:1043B000C0F29781069A0C93114619440023069186
:1043C0000A93039B092B2BD8052B40F37386043BE0
:1043D00003930027039B023B032B00F25186DFE887
:1043E00013F0D103C403B6026606414B444AC9F335
:1043F0001300002814BF1846104650E7C7F31303F4
:1044000043F07F51CDF83C803046A5F2FF3541F4B2
:104410004011DDF858807FE73A4834E7C31C47E78E
:104420000021616420468A46039101F029F94FF08A
:10443000FF3308930E930123099020640B93179B7D
:10444000002BC0F2D380059A0E2A00F3CF802B4BAD
:10445000BAF1000F03EBC203D3E90089C0F29583E0
:10446000DDE9006742464B463046394602F0CEFB56
:1044700002F03CFD824602F039FA42464B4602F019
:104480009BFA0B4602463946304602F0E1F8099D98
:104490000AF130032B70089B012B06460F4605F1ED
:1044A000010563D00022184B02F086FA0022002397
:1044B00006460F4602F0E8FC002840F08480CDF864
:1044C00000B00394DDF824B0089C2AE0AFF300802C
:1044D00061436F63A787D23FB3C8608B288AC63F0A
:1044E000FB799F501344D33F0000F07F29750008EB
:1044F000487500080EFCFFFF0000F83F60750008DB
:104500003C750008287500080000244002F054FAA9
:104510000022002306460F4602F0B6FC002840F0B9
:10452000E48342464B463046394602F06FFB02F0C8
:10453000DDFC824602F0DAF942464B4602F03CFAD4
:1045400002460B463046394602F082F80AF1300E38
:1045500005F801EBCBEB050E744506460F464FF010
:104560000002B74BD2D1DDF800B0039C32463B4687
:104570003046394602F06EF806460F464046494638
:1045800032463B4602F08AFC48B94046494632462C
:104590003B4602F079FCB0B11AF0010F13D015F8C8
:1045A000018C09996B1E04E08B4200F0488413F8DB
:1045B000018DB8F1390F03F101051A46F4D008F165
:1045C0000103DBB213702046594601F07FF8002248
:1045D000059B2A70049A01331360239B002B00F083
:1045E0004B8309981D6019B0BDE8F08F0B9A002A23
:1045F00000F08580039A012A40F30A83089B5F1E1E
:104600000A9BBB42C0F2A683DF1B089B002BC0F2B3
:10461000A484079D089B079A1A440792069A20468D
:104620001A440121069201F0EBF8064665B106999D
:1046300000290B4608DDA942079AA8BF2B46D21ACB
:10464000ED1ACB1A079206930A9B002B1ADD0B9BDF
:10465000002B00F07883002F10DD31463A462046CB
:1046600001F072F906465A463146204601F0D2F86A
:1046700059468046204601F029F8C3460A9BDA1BBA
:1046800040F0A5822046012101F0BAF80C9B002BD6
:10469000804638DD01461A46204601F055F9039B55
:1046A000012B804640F399824FF00009D8F8103072
:1046B00008EB8303186901F055F8C0F120002CE0E5
:1046C00001230D936AE6059802F010F932463B4645
:1046D00002F0DAFB00287FF44BAE059B013B05930B
:1046E00046E6079A059BD21A5B420A93002307927B
:1046F0000C9366E65B4207930023069356E60A9FF7
:10470000079D0B9E92E7039B012B40F3B8824FF06D
:1047100000090C9B002BC9D10120069B184410F006
:104720001F0000F08380C0F12003042B40F3B98404
:10473000C0F11C00079B03440793069B03440544F8
:104740000693079B002B05DD59461A46204601F0CB
:104750004BF98346069B002B05DD41461A46204651
:1047600001F042F980460D9B002B40F06A82089BC5
:10477000002B40F397820B9B002B71D1DDF8249026
:10478000089F4D4602E000F0ABFF83464146584685
:10479000FFF7AAFC00F1300C05F801CBC9EB0503CB
:1047A000BB42204659464FF00A024FF00003EADBB5
:1047B000099B089A012AACBF9B1801331D464FF094
:1047C000000A594601222046CDF800C001F00CF93C
:1047D0004146834601F05EF90028DDF800C040F351
:1047E000EF8215F8012C09996B1E04E08B4200F052
:1047F000758213F8012D392A03F10105F6D0013233
:104800001A704146204600F061FF002E3FF4DBAEF7
:10481000BAF1000F05D0B24503D05146204600F052
:1048200055FF3146204600F051FFCCE61C2081E7C1
:10483000044B009A5B1B02FA03F066E50D90ADE5B0
:1048400000002440EEFBFFFF3146002320460A22F1
:1048500000F046FF0E9B002B064640F30B840893A6
:10486000002D05DD31462A46204601F0BDF80646FA
:10487000B9F1000F40F0ED82B146089B099A013B67
:10488000D3180893009B03F001030A93174641468F
:104890005846FFF729FC31460546584601F0FAF81C
:1048A0004A4682464146204601F018F9C26803464E
:1048B00005F1300C002A40F0BA8119465846CDF86F
:1048C0001CC0069301F0E6F8069B009019462046AE
:1048D00000F0FCFE009ADDF81CC02AB9039B1BB94E
:1048E0000A9B002B00F0AA83BAF1000FC0F24A82A3
:1048F00005D1039B1BB90A9B002B00F04382002AC1
:1049000000F3BB82089B87F800C007F1010A9F42B1
:10491000554600F0BE8259460A220023204600F088
:10492000DFFE4E458346314620464FF00A024FF0E7
:10493000000300F0768100F0D3FE494606460A22C5
:104940002046002300F0CCFE574681469FE7012316
:104950000B93BAF1000F40F30C8256465546CDF842
:1049600038A0CDF820A00021172E61640AD90122B9
:1049700004235B0003F114008642114602F1010298
:10498000F7D26164204600F07BFE0E2D0990206472
:104990003FF655AD002F3FF452AD9DED007B0599DC
:1049A00000298DED107B40F32382B74B01F00F02FD
:1049B0000D1103EBC203E906D3E9006740F1D28190
:1049C000B24B51EC170BD3E9082302F01FF9CDE9E4
:1049D000000105F00F054FF003088DB1DFF8AC9230
:1049E00030463946EA0705D5D9E9002301F0E4FF4E
:1049F00008F101086D1009F10809F3D106460F46C8
:104A0000DDE9000132463B4602F000F9CDE9000144
:104A10000D9B43B1DDE9000100229D4B02F03EFAFF
:104A2000002840F0AE82404601F060FFDDE900233F
:104A300001F0C2FF974B002201F00CFE089B0646D6
:104A4000A1F15077002B00F06281059BDDF82090EA
:104A500014930B9B002B00F023828B4B8E4903EBAE
:104A6000C90353E90223002002F0D0F832463B4646
:104A700001F0EEFDDDE90067CDE91201394630466F
:104A800002F034FA054601F031FF303502460B469C
:104A90003046394601F0DCFD5FFA85F8099DDDE915
:104AA000122385F8008006460F46013502F0F6F91C
:104AB000002840F0A78232463B460020744901F0AE
:104AC000C7FD02460B46DDE9120102F005FA002897
:104AD00040F0AD82B9F1010F40F38481099BCDF81C
:104AE00000B0CDF854A09944A046DDE912AB0DE02A
:104AF0000020674901F0ACFD52465B4602F0CEF95A
:104B0000002840F08F824D4500F06781504659469D
:104B10000022624B01F050FF0022604B82468B4620
:104B20003046394601F048FF0F46064602F0DEF9EE
:104B3000044601F0DBFE02460B463046394601F0E2
:104B400087FD3034E4B252465B4605F8014B064619
:104B50000F4602F0A3F932463B460028C8D0149B0A
:104B6000DDF800B0059344462DE500230B93059B2B
:104B700053440E930133002B089340F30181089DA9
:104B80002E46F0E600230B93E3E6089B002B3FF74D
:104B900067AC40F0D48040460022414B494601F0CA
:104BA0000BFFDDE9002302F08DF9DDF82080464699
:104BB000002800F08B806FEA0A03099D05934146A7
:104BC000204600F083FD002E7FF42BAEFBE4594617
:104BD000204600F0B9FE834654E5009B002B7FF48D
:104BE00063AD019BC3F31303002B7FF490AD019BD6
:104BF00023F000473F0D3F05002F00F01C82079B6C
:104C000001330793069B013306934FF0010980E5BA
:104C10000F9A002A00F0A78103F233430A9F079DF1
:104C2000F9E400F05DFD5746064681462FE6014651
:104C30002046CDF800C000F049FD0122DDF800C09B
:104C400052E65846414600F025FF0028BFF68FADDA
:104C5000059F5946002320460A22013F059700F090
:104C60003FFD0B9B8346002B7FF4EEAD0E9B002B8C
:104C700040F3F581089381E50998FFF704BB009B99
:104C8000002B7FF444ADACE760750008287600087F
:104C90000000F03F00001C400000E03F0000244006
:104CA00000001440039B022B7FF765AD089B002B8F
:104CB00081D141460522204600F012FD8046414642
:104CC000584600F0E7FE00287FF775AF059A09996E
:104CD0003123013205920B704D1C70E7059A0132A9
:104CE0000592099A312313708BE5DDF800B0039C1F
:104CF00069E4404601F0FAFDDDE9002301F05CFEC5
:104D00000022C24B01F0A6FC0646A1F1507700221A
:104D1000BF4BDDE9000101F09BFC32463B4680467B
:104D2000894602F0D9F8002840F0B680324607F1F3
:104D300000434046494602F0B1F8002852D04FF0F7
:104D40000008464637E759460A9A204600F0FCFD1F
:104D5000834697E40A9B0C9A0A97FB1A1A440C9212
:104D6000002752E49DED107B4FF002088DED007B93
:104D700033E601250E950895AA460021616401E6F7
:104D80001D46FAE7002A15DD594601222046CDF8D6
:104D900000C000F029FE4146834600F07BFE00285B
:104DA000DDF800C040F35481BCF1390F00F01181EF
:104DB0000CF1010CB24687F800C07D1C4E4620E580
:104DC00004D11CF0010F01D00BE5154615F8013C8C
:104DD000302B05F1FF32F8D013E5DDF800B0DDF837
:104DE00054A04446DDE91023CDE90023FFF727BB9B
:104DF000059B5D42002D00F0BD80864B05F00F0243
:104E000003EBC203D3E90023DDE9100101F0D4FD77
:104E10002D11CDE9000100F027817F4E4FF00208EF
:104E2000EB0705D5D6E9002301F0C6FD08F101081E
:104E30006D1006F10806F3D1CDE90001E8E5059A09
:104E400001320592099A3023137031231370FFF752
:104E5000BABB7168204600F013FC33699A1C054602
:104E6000920006F10C010C30FDF714FE2046294695
:104E7000012200F0B9FD8146FFE4BCF1390F00F0DA
:104E8000A8800CF1010CB24687F800C07D1C4E468C
:104E9000B7E4B2464E4694E44FF00008464615E7A4
:104EA0005C4909F1FF3301EBC30132461593D1E9A7
:104EB00000013B4601F080FDDDE90067CDE912010C
:104EC0003946304602F012F8054601F00FFD024661
:104ED0000B463046394601F0BBFB099A3035B9F133
:104EE000010F157006460F4602F1010523D0099BFC
:104EF000CDF800B04B449846A946AB460022474B3C
:104F000001F05AFD0F46064601F0F0FF054601F09C
:104F1000EDFC303502460B463046394601F098FB31
:104F200009F8015BC145E9D1159B5D46DDF800B08C
:104F300006460F461D440022394BDDE9120101F0FF
:104F400089FB32463B4601F0A9FF002847D0149B5D
:104F5000059315F8018CFFF724BB079B089A9D1A4F
:104F60000023FFF758BB169B0A9F079DC3F136032A
:104F7000FFF751BB9DED107B4FF002088DED007BDC
:104F800046E5089B002B3FF4B4AE0E9D002D7FF745
:104F900029AF0022214BDDE9000101F00DFD06469D
:104FA0000F4608F10100CDE9006701F09FFC0246C1
:104FB0000B463046394601F0FFFC144B002201F04D
:104FC00049FB059B013B0646A1F150771493A94686
:104FD0003FE53922B2463A704E467D1C03E4DDE9D6
:104FE000122300200E4901F033FB32463B4601F00C
:104FF00073FF08B9F6E6154615F8013C302B05F1AC
:10500000FF32F8D0149B0593FFF7DDBA00001C4077
:105010000000144060750008287600080000244055
:105020000000E03F4346DDF800B0A0461C46149B5C
:105030000593FFF7B6BAB946FFF76BBBBCF1390F62
:10504000C7D0BAF1000F7FF7B5AE05F1310CB1E66C
:105050007FF4B0AE1CF0010F3FF4ACAEA4E6039BAE
:10506000022B04DC0E9B05E64FF00208D0E40E9BF9
:1050700008931BE6039B022BF9DC0E9BFFF7EFBBAB
:10508000002565642946204600F0FAFA4FF0FF3308
:1050900008930E9301230990AA4620640B93FFF70F
:1050A000CEB93FF44EABC0F13C00FFF743BB012348
:1050B0000B935CE50127FFF78DB900BFAFF30080CC
:1050C00000487047340400202DE9F04F01F10B0532
:1050D000162D83B0064627D935F0070500F1B680B6
:1050E000A94200F2B38000F0C7FAB5F5FC7F22D2E6
:1050F000C24FE80807EBC003DC689C4200F0C9819E
:105100006368E168A56823F00303234430465A68C6
:10511000E96042F001028D605A6000F0AFFA083495
:10512000204603B0BDE8F08F102900F28F8000F018
:10513000A3FA1025DCE7680A00F08F80042800F24B
:105140005481A80938304100AC4F07EB8101CC688D
:10515000A14206D10CE0002A80F28280E468A142DC
:1051600006D0636823F003035A1B0F2AF3DD0138CE
:105170000130A2493C6901F1080E744500F07E81BE
:10518000636823F003035A1B0F2A00F36481002A8B
:10519000C1F814E0C1F810E073DAB3F5007F80F0D5
:1051A0003981DB0801EBC3084FEAA30C4A68D8F841
:1051B0000890C4F80890012303FA0CF31343C4F8D1
:1051C0000C804B60C8F80840C9F80C4082100124DC
:1051D00094409C4262D8234206D120F00300640030
:1051E000234200F10400FAD007EBC008C446814610
:1051F000DCF80C309C4507D142E1002980F2528155
:10520000DB689C4500F03C815A6822F00302511B88
:105210000F29F2DD1C46D3F80CC054F8088F5A1938
:1052200045F0010941F00105C3F804903046C8F883
:105230000CC0CCF808807A613A61C2F80CE0C2F880
:1052400008E05560515000F019FA69E700240C237A
:105250002046336003B0BDE8F08F7E213F2073E726
:105260002344E1685A68A56842F00102E9603046CB
:105270008D605A6000F002FA0834204603B0BDE8A1
:10528000F08F234430465A6842F001025A6000F021
:10529000F5F90834204603B0BDE8F08FBC686368B8
:1052A00023F00308454504D8C5EB08030F2B00F392
:1052B0008C80534BDFF858A11A68DAF800300133BC
:1052C0002A4404EB080B00F0508102F580520F32A3
:1052D00022F47F6222F00F0211463046019200F064
:1052E000F3FCB0F1FF3F8146019A00F0F580834561
:1052F00000F2EF80434B1968CB451144196000F070
:105300003D81DAF80000DFF808E101301BBFCBEB8C
:10531000090B5944CEF80090196019F0070100F00C
:105320000781C1F10800C1F58051814408314A4428
:10533000C2F30B02C2EB010A51463046019300F062
:10534000C3FC431C019B00F02781C9EB00025244BF
:1053500042F001021968C7F808905144BC42C9F8EC
:1053600004201960DFF89CA016D0B8F10F0F40F2AE
:10537000E2806268A8F10C0323F00703E01802F052
:1053800001024FF0050E1A430F2B6260C0F804E0D3
:10539000C0F808E000F204811B4BBC681A68914217
:1053A00088BF1960194B1A689142626888BF1960FA
:1053B00022F003029542A2EB050301D80F2B04DC77
:1053C000304600F05BF90024AAE6621943F00103BD
:1053D00045F0010565603046BA60536000F04EF953
:1053E0000834204603B0BDE8F08F142869D954284A
:1053F00000F29780280B6E304100A5E66C04002077
:105400001409002018090020100900200C090020B0
:10541000780800205A0A042A56D9142A00F2A780D4
:105420005B324FEA420C07EB8C0CDFF8B481DCF8FE
:105430000810614500F085804A6822F0030293421B
:1054400002D289688C45F7D1CA687B68E260A160A6
:105450009460CC60BAE6631942F0010745F001059B
:10546000656030464B610B61C3F80CE0C3F808E09F
:105470005F609A50083400F001F951E64B68A5E6E8
:1054800009F1010919F0030F0CF1080C7FF4B0AE1B
:105490002BE004F108036469A34208BF02303FF423
:1054A00068AE2DE61A441C465168DB6854F8085F64
:1054B00041F0010151603046EB609D6000F0DEF884
:1054C0002EE65B3041003FE69A0938324FEA420C43
:1054D000A9E7BC423FF40EAFBC68626822F0030249
:1054E00068E7D8F80080984577D110F0030FA8F14D
:1054F000080300F1FF30F4D17B6823EA04037B60EA
:1055000064009C423FF6CAAE002C3FF4C7AE234273
:1055100048467FF469AE6400234200F10400FAD0EB
:1055200062E6B0F5AA7F18D8E80B773041000BE6A9
:105530004FF48051FBE60123C9F804304C460022A9
:1055400038E7D8F8043092104FF0010C0CFA02F250
:105550001343C8F804300A4678E740F2545398429F
:1055600017D8A80C7C304100EEE51032B4E6542A7E
:105570001ED81A0B6E324FEA420C54E7CBF30B00E5
:1055800000287FF4BEAE4244BB6842F001025A607C
:1055900002E7FC217E20D7E501224FF0000AD9E680
:1055A00004F10801304600F0CFFCDAF80010F3E611
:1055B000B2F5AA7F04D8DA0B77324FEA420C32E711
:1055C00040F254518A4204D89A0C7C324FEA420C81
:1055D00029E74FF0FC0C7E2225E77B6890E700BFAF
:1055E0006C040020830770B4C9B240D0541E002A56
:1055F0003FD003788B4218BF431C06D11DE0F4B1A5
:1056000002788A4204F1FF3417D013F0030F1846D2
:1056100003F10103F3D1032C14D884B103788B4236
:105620000BD00519431C02E002788A4205D0AB4238
:10563000184603F10103F7D1002070BC70472046E3
:1056400070BC704741EA0126024646EA064610460B
:10565000043203687340A3F1013525EA030313F014
:10566000803FDAD1043C032C1046F0D8D5E714462D
:10567000D1E71046E1E700BF704700BF704700BFA9
:10568000C36C70B505460C464BB153F8240080B18D
:10569000026843F8242000230361C36070BD042125
:1056A000212200F0D3FBE86403460028EDD100205E
:1056B00070BD012101FA04F6721D2846920000F027
:1056C000C5FB0028F3D044608660E4E731B1C36CC9
:1056D0004A6853F82200086043F82210704700BF60
:1056E000F0B50C6983B00D46064601F1140E002793
:1056F000DEF8001088B2090C02FB003302FB01F156
:1057000001EB134101379BB203EB0143BC424EF85E
:10571000043B4FEA1143EBDC3BB1AA68944207DA41
:1057200005EB8402013453612C61284603B0F0BDBF
:105730006968019301313046FFF7A2FF2A690232FE
:1057400005F10C01074692000C30FDF7A3F9F26C4D
:105750006968019B52F82100286042F821503D46BB
:10576000DEE700BF030C1B04B3B90004102310F0E4
:105770007F4F04BF0002083310F0704F04BF0001D8
:10578000043310F0404F04BF80000233002807DBD1
:10579000420003D4202070470023E8E7581C7047DC
:1057A00018467047036813F0070207D0D90720D4C2
:1057B0009A0720D49B0803600220704799B209B968
:1057C0001B0C102213F0FF0F04BF1B0A083219072D
:1057D00004BF1B090432990704BF9B080232D90792
:1057E00004D45B0801D120207047013203601046C9
:1057F0007047002070475B0803600120704700BFBE
:1058000010B50C460121FFF73BFF01224461026104
:1058100010BD00BF2DE9F04F0F691669B74283B084
:105820000D461446C0F28D8033463E461F46AB6897
:10583000696806EB07089845C8BF0131FFF720FFEC
:1058400000F1140C0CEB8809CC45009005D263469E
:10585000002143F8041B9945FBD804F1140202EB24
:10586000870A05F11403524503EB860E54D2CDF896
:105870000490994652F8043B1FFA83FBBBF1000FDA
:1058800020D000204F466646054600E01E4657F8E9
:10589000044B3068A1B283B20BFB0131240C000C25
:1058A0004B190BFB040000EB134099B2334641EA5D
:1058B0000041BE454FEA104543F8041BE6D8756029
:1058C00052F8043C5FEA134B20D0DCF80030674606
:1058D00018464D46002100E037462C88000C0BFB93
:1058E000040001449CB23E4644EA014346F8043BAE
:1058F000786855F8044B83B2240C0BFB043404EB9A
:105900001143AE454FEA1341E6D87B6092450CF156
:10591000040CAFD8DDF80490B8F1000F0BDD59F896
:10592000043CA9F104091BB105E059F8043D13B981
:10593000B8F10108F9D10098C0F8108003B0BDE8B3
:10594000F08F15460C4672E712F003032DE9F04183
:10595000144607460E462DD1A4101CD0BD6C95B33D
:10596000E3074FF0000806D4641014D02868A8B1EB
:105970000546E307F8D5384631462A46FFF74AFF81
:10598000B6B17268FB6C641053F82210316043F8B2
:1059900022600646EAD13046BDE8F08129462A4613
:1059A0003846FFF737FF2860C0F800800546E0E77B
:1059B0000646D9E75A1E0B4D002355F82220FFF763
:1059C0008FFE0646C8E701213846FFF759FE40F230
:1059D000712101220023416102610546B864036020
:1059E000BEE700BF507600082DE9F0470F698B68CD
:1059F0004FEA62194F447D1C9D420E461446496889
:105A0000804604DD5B009D4201F10101FADC404665
:105A1000FFF736FEB9F1000F00F1140109DD002394
:105A20009E460A4601334B4542F804EBFAD101EB9E
:105A30008301326906F1140314F01F0C03EB820E8C
:105A40001FD0CCF1200900221C6804FA0CF4144386
:105A50008A4641F8044B53F8044B9E4524FA09F258
:105A6000F2D8CAF8042002B1BD1CD8F84C307268D4
:105A7000013D53F822100561316043F82260BDE812
:105A8000F087043953F8042B41F8042F9E45F9D8C8
:105A9000EBE700BF02690B69D21A13D19B001430E7
:105AA0001431194410B4034401E098420CD253F865
:105AB000044D51F8042D9442F7D009D301205DF82C
:105AC000044B70471046704700205DF8044B704748
:105AD0004FF0FF305DF8044B704700BF2DE9F041F7
