:020000040800F2
:10000000708900206D150008D5150008D515000869
:10001000D5150008D5150008D5150008000000000A
:10002000000000000000000000000000D5150008DE
:10003000D515000800000000D5150008D5150008EA
:10004000D5150008D5150008D5150008D5150008E8
:10005000D5150008D5150008D5150008D5150008D8
:10006000D5150008D5150008D5150008D5150008C8
:10007000D5150008D5150008D5150008D5150008B8
:10008000D5150008D5150008D5150008D5150008A8
:10009000D5150008D5150008D5150008D515000898
:1000A000D5150008D5150008D5150008D515000888
:1000B000D5150008D5150008D5150008D515000878
:1000C000D5150008D5150008D5150008D515000868
:1000D000D5150008C1140008D5150008D51500086D
:1000E000D5150008D5150008D5150008D515000848
:1000F000D5150008D5150008D5150008D515000838
:10010000D5150008D5150008D5150008D515000827
:10011000D5150008D5150008D51500089D1600084E
:10012000D5150008D5150008D5150008D515000807
:10013000D5150008D5150008D5150008D5150008F7
:10014000D5150008D5150008D5150008D5150008E7
:10015000D5150008D515000879140008D515000834
:10016000D5150008D5150008D5150008D5150008C7
:10017000D5150008D5150008D5150008D5150008B7
:10018000D5150008D515000880B586B002AF034626
:10019000B9607A60FB73BB689BB21A469200134445
:1001A000DB0099B27B689BB21A46920013441B0194
:1001B0009AB200230093084611462822502302F0E9
:1001C00031F8FB7B302B40F09880BB689BB21A461D
:1001D00092001344DB009BB20F339AB27B689BB250
:1001E000194689000B441B019BB21C339BB210467D
:1001F00019460A224FF6FF7302F040F8BB689BB223
:100200001A4692001344DB009BB21A339AB27B6801
:100210009BB2194689000B441B019BB21D339BB254
:10022000104619460A224FF6FF7302F059F8BB68D0
:100230009BB21A4692001344DB009BB21A339AB267
:100240007B689BB2194689000B441B019BB2293382
:100250009BB2104619460A224FF6FF7302F040F88F
:10026000BB689BB21A4692001344DB009BB20F336B
:100270009AB27B689BB2194689000B441B019BB262
:1002800034339BB2104619460A224FF6FF7301F031
:10029000F5FFBB689BB21A4692001344DB009BB289
:1002A0000E339AB27B689BB2194689000B441B013E
:1002B0009BB229339BB2104619460A224FF6FF73B0
:1002C00002F00EF8BB689BB21A4692001344DB00A2
:1002D0009BB20E339AB27B689BB2194689000B44DD
:1002E0001B019BB21D339BB2104619460A224FF6E2
:1002F000FF7301F0F5FF00F060BFFB7B312B33D1C2
:10030000BB689BB21A4692001344DB009BB21A33BF
:100310009AB27B689BB2194689000B441B019BB2C1
:100320001D339BB2104619460A224FF6FF7301F0A7
:10033000D7FFBB689BB21A4692001344DB009BB206
:100340001A339AB27B689BB2194689000B441B0191
:100350009BB229339BB2104619460A224FF6FF730F
:1003600001F0BEFF00F029BFFB7B322B7ED1BB68C2
:100370009BB21A4692001344DB009BB20F339AB231
:100380007B689BB2194689000B441B019BB21C334E
:100390009BB2104619460A224FF6FF7301F06EFF1A
:1003A000BB689BB21A4692001344DB009BB21A331F
:1003B0009AB27B689BB2194689000B441B019BB221
:1003C0001D339BB2104619460A224FF6FF7301F007
:1003D00087FFBB689BB21A4692001344DB009BB2B6
:1003E0000F339AB27B689BB2194689000B441B01FC
:1003F0009BB234339BB2104619460A224FF6FF7364
:1004000001F03CFFBB689BB21A4692001344DB002C
:100410009BB20E339AB27B689BB2194689000B449B
:100420001B019BB229339BB2104619460A224FF694
:10043000FF7301F055FFBB689BB21A46920013444C
:10044000DB009BB20F339AB27B689BB219468900DE
:100450000B441B019BB228339BB2104619460A225B
:100460004FF6FF7301F00AFF00F0A7BEFB7B332BB2
:100470007ED1BB689BB21A4692001344DB009BB24C
:100480000F339AB27B689BB2194689000B441B015B
:100490009BB21C339BB2104619460A224FF6FF73DB
:1004A00001F0ECFEBB689BB21A4692001344DB00DD
:1004B0009BB21A339AB27B689BB2194689000B44EF
:1004C0001B019BB21D339BB2104619460A224FF600
:1004D000FF7301F005FFBB689BB21A4692001344FC
:1004E000DB009BB21A339AB27B689BB21946890033
:1004F0000B441B019BB229339BB2104619460A22BA
:100500004FF6FF7301F0ECFEBB689BB21A469200F7
:100510001344DB009BB20F339AB27B689BB219463F
:1005200089000B441B019BB234339BB21046194621
:100530000A224FF6FF7301F0A1FEBB689BB21A4678
:1005400092001344DB009BB20F339AB27B689BB2DC
:10055000194689000B441B019BB228339BB21046FD
:1005600019460A224FF6FF7301F088FE00F025BEFF
:10057000FB7B342B65D1BB689BB21A4692001344B7
:10058000DB009BB21A339AB27B689BB21946890092
:100590000B441B019BB21D339BB2104619460A2225
:1005A0004FF6FF7301F09CFEBB689BB21A469200A7
:1005B0001344DB009BB21A339AB27B689BB2194694
:1005C00089000B441B019BB229339BB2104619468C
:1005D0000A224FF6FF7301F083FEBB689BB21A46F6
:1005E00092001344DB009BB20E339AB27B689BB23D
:1005F000194689000B441B019BB21D339BB2104668
:1006000019460A224FF6FF7301F06AFEBB689BB2DF
:100610001A4692001344DB009BB20F339AB27B68F8
:100620009BB2194689000B441B019BB228339BB235
:10063000104619460A224FF6FF7301F01FFE00F024
:10064000BCBDFB7B352B7ED1BB689BB21A469200AA
:100650001344DB009BB20F339AB27B689BB21946FE
:1006600089000B441B019BB21C339BB210461946F8
:100670000A224FF6FF7301F001FEBB689BB21A46D7
:1006800092001344DB009BB21A339AB27B689BB290
:10069000194689000B441B019BB229339BB21046BB
:1006A00019460A224FF6FF7301F01AFEBB689BB28F
:1006B0001A4692001344DB009BB20F339AB27B6858
:1006C0009BB2194689000B441B019BB234339BB289
:1006D000104619460A224FF6FF7301F0CFFDBB68A2
:1006E0009BB21A4692001344DB009BB20E339AB2BF
:1006F0007B689BB2194689000B441B019BB21D33DA
:100700009BB2104619460A224FF6FF7301F0E8FD2E
:10071000BB689BB21A4692001344DB009BB20F33B6
:100720009AB27B689BB2194689000B441B019BB2AD
:1007300028339BB2104619460A224FF6FF7301F088
:100740009DFD00F03ABDFB7B362B40F09880BB68E6
:100750009BB21A4692001344DB009BB20F339AB24D
:100760007B689BB2194689000B441B019BB21C336A
:100770009BB2104619460A224FF6FF7301F07EFD28
:10078000BB689BB21A4692001344DB009BB21A333B
:100790009AB27B689BB2194689000B441B019BB23D
:1007A00029339BB2104619460A224FF6FF7301F017
:1007B00097FDBB689BB21A4692001344DB009BB2C4
:1007C0000F339AB27B689BB2194689000B441B0118
:1007D0009BB234339BB2104619460A224FF6FF7380
:1007E00001F04CFDBB689BB21A4692001344DB003B
:1007F0009BB20E339AB27B689BB2194689000B44B8
:100800001B019BB229339BB2104619460A224FF6B0
:10081000FF7301F065FDBB689BB21A46920013445A
:10082000DB009BB20E339AB27B689BB219468900FB
:100830000B441B019BB21D339BB2104619460A2282
:100840004FF6FF7301F04CFDBB689BB21A46920055
:100850001344DB009BB20F339AB27B689BB21946FC
:1008600089000B441B019BB228339BB210461946EA
:100870000A224FF6FF7301F001FD00F09EBCFB7BE6
:10088000372B4CD1BB689BB21A4692001344DB0055
:100890009BB20F339AB27B689BB2194689000B4416
:1008A0001B019BB21C339BB2104619460A224FF61D
:1008B000FF7301F0E3FCBB689BB21A46920013443D
:1008C000DB009BB21A339AB27B689BB2194689004F
:1008D0000B441B019BB21D339BB2104619460A22E2
:1008E0004FF6FF7301F0FCFCBB689BB21A46920006
:1008F0001344DB009BB21A339AB27B689BB2194651
:1009000089000B441B019BB229339BB21046194648
:100910000A224FF6FF7301F0E3FC00F04EBCFB7BB4
:10092000382B40F0B080BB689BB21A46920013444B
:10093000DB009BB20F339AB27B689BB219468900E9
:100940000B441B019BB21C339BB2104619460A2272
:100950004FF6FF7301F092FCBB689BB21A469200FF
:100960001344DB009BB21A339AB27B689BB21946E0
:1009700089000B441B019BB21D339BB210461946E4
:100980000A224FF6FF7301F0ABFCBB689BB21A461C
:1009900092001344DB009BB21A339AB27B689BB27D
:1009A000194689000B441B019BB229339BB21046A8
:1009B00019460A224FF6FF7301F092FCBB689BB206
:1009C0001A4692001344DB009BB20F339AB27B6845
:1009D0009BB2194689000B441B019BB234339BB276
:1009E000104619460A224FF6FF7301F047FCBB6818
:1009F0009BB21A4692001344DB009BB20E339AB2AC
:100A00007B689BB2194689000B441B019BB22933BA
:100A10009BB2104619460A224FF6FF7301F060FCA4
:100A2000BB689BB21A4692001344DB009BB20E33A4
:100A30009AB27B689BB2194689000B441B019BB29A
:100A40001D339BB2104619460A224FF6FF7301F080
:100A500047FCBB689BB21A4692001344DB009BB272
:100A60000F339AB27B689BB2194689000B441B0175
:100A70009BB228339BB2104619460A224FF6FF73E9
:100A800001F0FCFB99E3FB7B392B40F09780BB68BE
:100A90009BB21A4692001344DB009BB20F339AB20A
:100AA0007B689BB2194689000B441B019BB21C3327
:100AB0009BB2104619460A224FF6FF7301F0DEFB87
:100AC000BB689BB21A4692001344DB009BB21A33F8
:100AD0009AB27B689BB2194689000B441B019BB2FA
:100AE0001D339BB2104619460A224FF6FF7301F0E0
:100AF000F7FBBB689BB21A4692001344DB009BB223
:100B00001A339AB27B689BB2194689000B441B01C9
:100B10009BB229339BB2104619460A224FF6FF7347
:100B200001F0DEFBBB689BB21A4692001344DB0067
:100B30009BB20F339AB27B689BB2194689000B4473
:100B40001B019BB234339BB2104619460A224FF662
:100B5000FF7301F093FBBB689BB21A4692001344EB
:100B6000DB009BB20E339AB27B689BB219468900B8
:100B70000B441B019BB21D339BB2104619460A223F
:100B80004FF6FF7301F0ACFBBB689BB21A469200B4
:100B90001344DB009BB20F339AB27B689BB21946B9
:100BA00089000B441B019BB228339BB210461946A7
:100BB0000A224FF6FF7301F061FBFEE2FB7B412B43
:100BC00003D0FB7B612B40F09780BB689BB21A4639
:100BD00092001344DB009BB20F339AB27B689BB246
:100BE000194689000B441B019BB21C339BB2104673
:100BF00019460A224FF6FF7301F040FBBB689BB217
:100C00001A4692001344DB009BB21A339AB27B68F7
:100C10009BB2194689000B441B019BB21D339BB24A
:100C2000104619460A224FF6FF7301F059FBBB68C4
:100C30009BB21A4692001344DB009BB21A339AB25D
:100C40007B689BB2194689000B441B019BB2293378
:100C50009BB2104619460A224FF6FF7301F040FB83
:100C6000BB689BB21A4692001344DB009BB20E3362
:100C70009AB27B689BB2194689000B441B019BB258
:100C800029339BB2104619460A224FF6FF7301F032
:100C900027FBBB689BB21A4692001344DB009BB251
:100CA0000E339AB27B689BB2194689000B441B0134
:100CB0009BB21D339BB2104619460A224FF6FF73B2
:100CC00001F00EFBBB689BB21A4692001344DB0096
:100CD0009BB20F339AB27B689BB2194689000B44D2
:100CE0001B019BB228339BB2104619460A224FF6CD
:100CF000FF7301F0C3FA60E2FB7B422B02D0FB7B67
:100D0000622B7DD1BB689BB21A4692001344DB0074
:100D10009BB21A339AB27B689BB2194689000B4486
:100D20001B019BB229339BB2104619460A224FF68B
:100D3000FF7301F0D5FABB689BB21A4692001344C8
:100D4000DB009BB20F339AB27B689BB219468900D5
:100D50000B441B019BB234339BB2104619460A2246
:100D60004FF6FF7301F08AFABB689BB21A469200F5
:100D70001344DB009BB20E339AB27B689BB21946D8
:100D800089000B441B019BB229339BB210461946C4
:100D90000A224FF6FF7301F0A3FABB689BB21A4612
:100DA00092001344DB009BB20E339AB27B689BB275
:100DB000194689000B441B019BB21D339BB21046A0
:100DC00019460A224FF6FF7301F08AFABB689BB2FC
:100DD0001A4692001344DB009BB20F339AB27B6831
:100DE0009BB2194689000B441B019BB228339BB26E
:100DF000104619460A224FF6FF7301F03FFADCE174
:100E0000FB7B432B02D0FB7B632B64D1BB689BB283
:100E10001A4692001344DB009BB20F339AB27B68F0
:100E20009BB2194689000B441B019BB21C339BB239
:100E3000104619460A224FF6FF7301F01FFABB68ED
:100E40009BB21A4692001344DB009BB20F339AB256
:100E50007B689BB2194689000B441B019BB234335B
:100E60009BB2104619460A224FF6FF7301F006FAAC
:100E7000BB689BB21A4692001344DB009BB20E3350
:100E80009AB27B689BB2194689000B441B019BB246
:100E900029339BB2104619460A224FF6FF7301F020
:100EA0001FFABB689BB21A4692001344DB009BB248
:100EB0000E339AB27B689BB2194689000B441B0122
:100EC0009BB21D339BB2104619460A224FF6FF73A0
:100ED00001F006FA71E1FB7B442B02D0FB7B642B13
:100EE0007DD1BB689BB21A4692001344DB009BB2D3
:100EF0001A339AB27B689BB2194689000B441B01D6
:100F00009BB21D339BB2104619460A224FF6FF735F
:100F100001F0E6F9BB689BB21A4692001344DB006D
:100F20009BB21A339AB27B689BB2194689000B4474
:100F30001B019BB229339BB2104619460A224FF679
:100F4000FF7301F0CDF9BB689BB21A4692001344BF
:100F5000DB009BB20F339AB27B689BB219468900C3
:100F60000B441B019BB234339BB2104619460A2234
:100F70004FF6FF7301F082F9BB689BB21A469200EC
:100F80001344DB009BB20E339AB27B689BB21946C6
:100F900089000B441B019BB229339BB210461946B2
:100FA0000A224FF6FF7301F09BF9BB689BB21A4609
:100FB00092001344DB009BB20F339AB27B689BB262
:100FC000194689000B441B019BB228339BB2104683
:100FD00019460A224FF6FF7301F050F9EDE0FB7B52
:100FE000452B02D0FB7B652B7DD1BB689BB21A469B
:100FF00092001344DB009BB20F339AB27B689BB222
:10100000194689000B441B019BB21C339BB210464E
:1010100019460A224FF6FF7301F030F9BB689BB204
:101020001A4692001344DB009BB20F339AB27B68DE
:101030009BB2194689000B441B019BB234339BB20F
:10104000104619460A224FF6FF7301F017F9BB68E4
:101050009BB21A4692001344DB009BB20E339AB245
:101060007B689BB2194689000B441B019BB2293354
:101070009BB2104619460A224FF6FF7301F030F971
:10108000BB689BB21A4692001344DB009BB20E333E
:101090009AB27B689BB2194689000B441B019BB234
:1010A0001D339BB2104619460A224FF6FF7301F01A
:1010B00017F9BB689BB21A4692001344DB009BB23F
:1010C0000F339AB27B689BB2194689000B441B010F
:1010D0009BB228339BB2104619460A224FF6FF7383
:1010E00001F0CCF869E0FB7B462B02D0FB7B662B42
:1010F00063D1BB689BB21A4692001344DB009BB2DB
:101100000F339AB27B689BB2194689000B441B01CE
:101110009BB21C339BB2104619460A224FF6FF734E
:1011200001F0ACF8BB689BB21A4692001344DB0096
:101130009BB20E339AB27B689BB2194689000B446E
:101140001B019BB229339BB2104619460A224FF667
:10115000FF7301F0C5F8BB689BB21A4692001344B6
:10116000DB009BB20E339AB27B689BB219468900B2
:101170000B441B019BB21D339BB2104619460A2239
:101180004FF6FF7301F0ACF8BB689BB21A469200B1
:101190001344DB009BB20F339AB27B689BB21946B3
:1011A00089000B441B019BB228339BB210461946A1
:1011B0000A224FF6FF7301F061F81037BD4680BD7B
:1011C00080B584B000AF786039600023FB600FE029
:1011D000FB687A6813441B781846F9683A68FEF78A
:1011E000D3FFFB680133FB60FB68072B00DD05E0E4
:1011F000FB687A6813441B78002BE9D11037BD4691
:1012000080BD00BF80B584B000AF0220012100F096
:10121000ADFB47F6FF73BB60A723BB800023BB81F8
:101220000023FB803B1D0548194601F097FC03484D
:10123000012101F037FD1037BD4680BD000400409C
:1012400080B483B000AF0346FB80074B00225A6294
:1012500000BF054B5B6A9BB2FA889A42F9D20C3701
:10126000BD465DF8047B70470004004080B582B045
:1012700000AF0346FB8003E04FF47A70FFF7E0FF16
:10128000FB885A1EFA80002BF6D10837BD4680BD78
:1012900080B483B000AF78607B689B889BB2C3F357
:1012A00008039BB218460C37BD465DF8047B7047B7
:1012B00080B483B000AF78600B467B8013467B70B0
:1012C0007B78002B08D07B689B8A9AB27B8813437B
:1012D0009AB27B689A8209E07B689B8A9AB27B8883
:1012E000DB439BB213409AB27B689A820C37BD46AF
:1012F0005DF8047B704700BF80B487B000AF7860B2
:101300000B467B8013467B7000233B610023FB6010
:101310000023BB6000237B617B687B617B88DBB241
:101320005B09DBB23B617B8803F01F03FB60FB685A
:10133000012202FA03F3BB603B69012B03D17B69F5
:101340000C337B6109E03B69022B03D17B691033CD
:101350007B6102E07B6914337B617B78002B06D0D4
:101360007B697A691168BA680A431A6006E07B698A
:101370007A691168BA68D2430A401A601C37BD46C0
:101380005DF8047B704700BF80B487B000AF786021
:101390000B467B800023FB6000237B610023BB6046
:1013A0000023FB747B88DBB25B09DBB2BB607B880C
:1013B00003F01F037B617B69012202FA03F37B6167
:1013C000BB68012B07D17B689B899BB21A467B695E
:1013D00013407B6111E0BB68022B07D17B681B8A3D
:1013E0009BB21A467B6913407B6106E07B689B8A4F
:1013F0009BB21A467B6913407B617B881B0A9BB2B8
:10140000FB60FB68012202FA03F3FB607B681B8828
:101410009BB21A46FB681340FB607B69002B05D02A
:10142000FB68002B02D00123FB7401E00023FB7456
:10143000FB7C18461C37BD465DF8047B704700BF37
:1014400080B485B000AF78600B467B800023FB81C1
:101450000023BB817B881B0AFB81FB89012202FAE6
:1014600003F3BB81BB89DB439AB27B681A801437D4
:10147000BD465DF8047B704780B500AF0D480E494E
:1014800001F09EF90346002B13D00A480A4901F0E7
:10149000EFF908481021002201F058F9074840F2FE
:1014A0002661FFF7CDFF054840F226610122FFF7D4
:1014B00023FF80BDB8640240008000280010014076
:1014C00080B500AF234840F22441FFF75DFF03469B
:1014D000002B1FD01F48FFF7DBFE1F4B01221A70A5
:1014E0001C4840F224410022FFF706FF1B4801F090
:1014F0001FF90346C3F140039AB2194B1A801748EB
:10150000002101F0F9F8164B1B889BB21A46154BC7
:10151000002199540F4840F22661FFF735FF03463A
:10152000002B16D00B4840F22661FFF789FF0948CF
:1015300040F226610022FFF7DFFE064880210022EC
:10154000FFF7B6FE0548002101F0D6F8064B002251
:101550001A7080BD001001408D080020B864024060
:101560008E080020D00800208C08002080B582B0B2
:1015700000AF124B7B60124B3B6007E03B681A1DCB
:101580003A607A68111D796012681A603B680D4AEA
:101590009342F3D30C480D494FF000028842B8BF84
:1015A00040F8042BFADBDFF82800016841F47001F1
:1015B000016000F067F90837BD4680BD847A0008F5
:1015C000000000208C0800208C0800206C090020FE
:1015D00088ED00E080B400AFFEE700BF80B483B0C8
:1015E00000AF0346FB71054AFB795363FB79044A5C
:1015F00013600C37BD465DF8047B7047000800405F
:101600001409002080B586B002AF37233B730A234C
:101610007B730023BB730123FB7307F10C03184694
:1016200001F0F0F92020012100F0A0F93B46184616
:1016300001F0FEFA53233B8009237B6000233B81AA
:1016400000237B803B461348194601F087FA114876
:101650000121012201F0FEFB0E48012101F022FBD5
:1016600003230093002301930B484FF48071002261
:10167000002301F04FFA032300930123019306484E
:101680004FF400710022002301F044FA1037BD46E8
:1016900080BD00BF001400400008024080B582B049
:1016A00000AF2348012101F0F9FB22484FF480717B
:1016B00000F0D6FE03467B601F4B1B687A689A4297
:1016C00008D01D4B1B68002B04D01C4B1B6801333A
:1016D0001A4A1360184A7B681360194B1B68013360
:1016E000174A1360164B1B68164A93421DDD144BB4
:1016F00000221A60114B1B68134A13600F4B002223
:101700001A60124B1A68104B1B68D21A104B1B68D8
:101710001046194601F0DCF802460D4B1A600C4BDE
:101720001B68DBB21846FFF759FF0837BD4680BD7E
:1017300000140040000802401C090020200900207D
:1017400024090020A08601001009002000000020CC
:101750001409002080B58AB002AF0323009301234F
:1017600001931E484FF480510222002301F0D2F968
:101770001A480C21022200F0A9FE0420012100F0E9
:10178000F5F85323BB82FF23BB612023FB8207F1C3
:1017900014031348194601F0E1F93B46184601F0DD
:1017A0001BFB60233B800023BB8101237B80002344
:1017B000BB603B460A48194601F094FA08480821E4
:1017C00001F02CFB0648012101F04CFA04480121EC
:1017D00001F068FA2037BD4680BD00BF000C024012
:1017E0000008004080B582B000AF7860134B1B68E2
:1017F000786813491A4601F0EDFF78680021FFF779
:10180000DFFC104B1B6878680D491A4601F0E2FFB7
:1018100078680121FFF7D4FC0B4B1B6878680849F6
:101820001A4601F0D7FF78680221FFF7C9FC4FF490
:10183000FA70FFF71BFD0837BD4680BD1409002074
:10184000F8780008100900200000002080B582B060
:1018500000AF0220012100F04DF800233B7100236E
:10186000BB7103237B710123FB7101233B603B466A
:101870000348194600F066FD0837BD4680BD00BF2D
:101880000004024080B586B002AF00F067FE4FF45E
:10189000407001F0A5F8FFF75DFFFFF7D7FFFFF7F6
:1018A000B1FE032000F00CFB00230093002040F267
:1018B000DF11002240F23F1300F028FCFFF7A2FCEA
:1018C0000A48012100F0CCFD0346012B04D1084B4E
:1018D00040F24C421A6003E0054B4FF4FA621A6082
:1018E0003B461846FFF77EFFEAE700BF00040240D0
:1018F0000000002080B483B000AF78600B46FB701E
:10190000FB78002B06D00949084B1A6B7B68134300
:101910000B6306E00549054B1A6B7B68DB431340FC
:101920000B630C37BD465DF8047B704700380240FE
:1019300080B483B000AF78600B46FB70FB78002B5F
:1019400006D00949084B9A6B7B6813438B6306E00A
:101950000549054B9A6B7B68DB4313408B630C375F
:10196000BD465DF8047B70470038024080B483B008
:1019700000AF78600B46FB70FB78002B06D009495E
:10198000084B1A6C7B6813430B6406E00549054B52
:101990001A6C7B68DB4313400B640C37BD465DF863
:1019A000047B70470038024080B483B000AF786099
:1019B0004FF020407B681B687A6851687A689268AB
:1019C00011437A68D26811437A68126911437A68C0
:1019D000526911437A68926911437A68D269114356
:1019E0007A68126A11437A68526A11437A68926A75
:1019F00011437A68D26A11437A68126B0A4340F83D
:101A000023207B689B68082B0DD14FF020417B6819
:101A10001B684FF020407A68126850F8222042F08C
:101A2000400241F823204FF020407B681B680133BF
:101A30007A68526B11687A68526B526812011143CE
:101A40007A68526B9268120211437A68526BD268BC
:101A5000120411437A68526B1269120511437A68B5
:101A6000526B5269120611437A68526B92690A43AB
:101A700040F823207B68DB6AB3F5804F20D11648FD
:101A80007B681B687A68926B11687A68926B5268FF
:101A9000120111437A68926B9268120211437A68BC
:101AA000926B1269120511437A68926B52691206A1
:101AB00011437A68926B92690A4340F8232006E04A
:101AC000054A7B681B686FF0704142F823100C37A1
:101AD000BD465DF8047B7047040100A080B483B06C
:101AE00000AF78600B46FB70FB78002B0CD04FF0FA
:101AF00020414FF020427B6852F8233043F001022E
:101B00007B6841F823200BE04FF020414FF020424A
:101B10007B6852F82320054B13407A6841F8223045
:101B20000C37BD465DF8047B704700BFFEFF0F0019
:101B300080B500AF324800210C2200F0C7FC3048CD
:101B400001210C2200F0C2FC2D4804210C2200F0DF
:101B5000BDFC2B4805210C2200F0B8FC28480721C9
:101B60000C2200F0B3FC264808210C2200F0AEFC49
:101B7000234809210C2200F0A9FC21480A210C224B
:101B800000F0A4FC1E480B210C2200F09FFC1C4816
:101B90000E210C2200F09AFC19480F210C2200F0B3
:101BA00095FC184807210C2200F090FC15480821EC
:101BB0000C2200F08BFC134809210C2200F086FC5B
:101BC00010480A210C2200F081FC0E480B210C2247
:101BD00000F07CFC0B480C210C2200F077FC09483B
:101BE0000D210C2200F072FC06480E210C2200F0A0
:101BF0006DFC04480F210C2200F068FC80BD00BF82
:101C0000000C02400010024080B582B000AF0120FD
:101C10000121FFF78DFE1A200121FFF76BFE012342
:101C20003B7103237B710023BB7120233B600023A6
:101C3000FB713B462748194600F084FB25482021CC
:101C400000F028FCFFF774FF03237B7102233B7134
:101C50004CF203733B603B461F48194600F072FB91
:101C60004FF680733B603B461C48194600F06AFB08
:101C700010233B603B461848194600F063FB2023C5
:101C80003B603B461448194600F05CFB80233B60F8
:101C90003B461148194600F055FB4FF400633B608A
:101CA0003B460D48194600F04DFB0B484FF40051E0
:101CB00000F0F0FB0848102100F0ECFB0648202162
:101CC00000F0E8FB0448802100F0E4FB0837BD4643
:101CD00080BD00BF00040240000C02400010024022
:101CE00080B596B000AFFFF78FFF01200121FFF70D
:101CF0001FFE05233B6002237B600923BB6000239A
:101D0000FB6000233B6100237B610023BB61002358
:101D1000FB6100233B6200237B621023BB62002334
:101D2000FB6200233B6300237B630023BB63002330
:101D3000FB634FF480533B6400237B640023BB644C
:101D40000023FB643B463B653B467B6507F11C0378
:101D50001846FFF729FE00200121FFF7BFFE583784
:101D6000BD4680BD80B485B000AF78600023FB60C5
:101D70007A6813461B019B1ADB001A460A4BA3FB29
:101D80000213D21A520813449B08BB60FB6801334C
:101D9000FB60FA68BB689A4200D900E0F6E71437A6
:101DA000BD465DF8047B70472549922480B582B01A
:101DB00000AF78607B684FF47A7202FB03F3184639
:101DC000FFF7D0FF0837BD4680BD00BF80B483B0A9
:101DD00000AF0346FB714FF0C043FA7992B21A800C
:101DE0000C37BD465DF8047B704700BF80B483B0FC
:101DF00000AF0346FB80044AFB8813800C37BD46C6
:101E00005DF8047B704700BF0000026080B582B0BF
:101E100000AF0346FB713620FFF7D8FFFB79032B99
:101E20003AD801A252F823F0391E0008511E0008CA
:101E3000691E0008811E00080820FFF7D7FF1E4B0F
:101E400040F23F121A801D4B40F2DF121A802FE041
:101E50006820FFF7CBFF184B40F2DF121A80174BB8
:101E600040F23F121A8023E0C820FFF7BFFF124B59
:101E700040F23F121A80114B40F2DF121A8017E035
:101E8000A820FFF7B3FF0C4B40F2DF121A800B4B78
:101E900040F23F121A800BE06820FFF7A7FF064BC5
:101EA00040F2DF121A80054B40F23F121A8000BF49
:101EB0000837BD4680BD00BF100000201200002082
:101EC00080B582B000AF0346FB71FFF79DFEFFF7C0
:101ED00007FF0120FFF76AFF5B48202100F0E8FAC6
:101EE0000520FFF763FF5848202100F0D3FA78203F
:101EF000FFF75CFF1120FFF769FF3220FFF756FF65
:101F0000C020FFF763FF0D20FFF770FF0D20FFF7E4
:101F10006DFFC120FFF75AFF4720FFF767FF002042
:101F2000FFF764FFC220FFF751FF0020FFF75EFFBD
:101F3000C520FFF74BFF0020FFF758FF4820FFF7B1
:101F400055FFB620FFF742FF0020FFF74FFF42206A
:101F5000FFF74CFF3B20FFF749FFE020FFF736FF7C
:101F60000F20FFF743FF2420FFF740FF1C20FFF75F
:101F70003DFF0A20FFF73AFF0F20FFF737FF082049
:101F8000FFF734FF4320FFF731FF8820FFF72EFFD4
:101F90003220FFF72BFF0F20FFF728FF1020FFF75D
:101FA00025FF0620FFF722FF0F20FFF71FFF072066
:101FB000FFF71CFF0020FFF719FFE120FFF706FFE6
:101FC0000F20FFF713FF3820FFF710FF3020FFF737
:101FD0000DFF0920FFF70AFF0F20FFF707FF0F2073
:101FE000FFF704FF4E20FFF701FF7720FFF7FEFE0B
:101FF0003C20FFF7FBFE0720FFF7F8FE1020FFF75D
:10200000F5FE0520FFF7F2FE2320FFF7EFFE1B2071
:10201000FFF7ECFE0020FFF7E9FE2020FFF7D6FED9
:102020000020FFF7E3FEFB791846FFF7EFFE3A20AA
:10203000FFF7CCFE5520FFF7D9FE2920FFF7C6FE9B
:102040000837BD4680BD00BF0004024080B584B0A3
:1020500000AF0346FB80FB881B0A9BB2FB73FB8827
:10206000BB73FB7B9BB21846FFF7C0FEBB7B9BB2EA
:102070001846FFF7BBFE1037BD4680BD80B582B065
:1020800000AF03460A46FB801346BB802A20FFF7B9
:102090009DFEFB881846FFF7D9FFBB881846FFF75F
:1020A000D5FF0837BD4680BD80B582B000AF03467E
:1020B0000A46FB801346BB802B20FFF787FEFB8878
:1020C0001846FFF7C3FFBB881846FFF7BFFF083766
:1020D000BD4680BD80B483B000AF0346FB800B4695
:1020E000BB8013467B80FA88BB889A4201D2BB88AA
:1020F00006E0FA887B889A4201D97B8800E0FB8859
:1021000018460C37BD465DF8047B704790B585B026
:1021100000AF0446084611461A462346FB80034694
:10212000BB800B467B8013463B800023BB600023B3
:10213000FB60FA88BB889A420BD9FA88BB88534067
:10214000FB80FA88BB885340BB80FA88BB88534029
:10215000FB807A883B889A420BD97A883B88534027
:102160007B807A883B8853403B807A883B88534009
:102170007B802A4B1B88FA88104600211A46FFF7FD
:10218000A9FF0346FB80254B1B88BA881046002117
:102190001A46FFF79FFF0346BB80214B1B887A88B6
:1021A000104600211A46FFF795FF03467B801C4B23
:1021B0001B883A88104600211A46FFF78BFF03461A
:1021C0003B80BA88FB88D31A0133BB603A887B888E
:1021D000D31A5A1CBB6802FB03F3BB60FA88BB88A6
:1021E00010461946FFF74AFF7A883B881046194681
:1021F000FFF75AFF2C20FFF7E9FD0023FB6006E004
:102200003B8C1846FFF722FFFB680133FB60FA683E
:10221000BB689A42F4DB1437BD4690BD1000002025
:102220001200002090B585B002AF04460846114662
:102230001A462346FB800346BB800B467B80134631
:102240003B807B88002B15D03B88002B12D0FA886E
:102250007B8813449BB2013B99B2BA883B881344F4
:102260009BB2013B9CB2F888BA883B8B0093234613
:10227000FFF74CFF0C37BD4690BD00BF90B585B051
:1022800000AF0446084611461A462346FB80034623
:10229000BB800B467B8013463B80FA887B881344C7
:1022A0009BB2FA8810461946FFF7E8FEBA88BB8849
:1022B00010461946FFF7F8FE2C20FFF787FD002394
:1022C000FB6006E03B881846FFF7C0FEFB68013361
:1022D000FB607A88FB689A42F4DC1437BD4690BDF7
:1022E00090B585B000AF0446084611461A4623460D
:1022F000FB800346BB800B467B8013463B80FA88FD
:10230000FB8810461946FFF7B9FEBA887B8813444C
:102310009BB2BA8810461946FFF7C6FE2C20FFF77D
:1023200055FD0023FB6006E03B881846FFF78EFE54
:10233000FB680133FB607A88FB689A42F4DC14374F
:10234000BD4690BD80B487B000AF7860396000238F
:102350007B6100233B610023FB6000237B6176E00F
:102360007B69012202FA03F33B613B681A683B690F
:102370001340FB60FA683B699A4265D17B681A6832
:102380007B695B00194603238B40DB431A407B6863
:102390001A607B681A683B681B7919467B695B0089
:1023A00001FA03F31A437B681A603B681B79012B1F
:1023B00003D03B681B79022B2ED17B689A687B691E
:1023C0005B00194603238B40DB431A407B689A600D
:1023D0007B689A683B685B7919467B695B0001FA08
:1023E00003F31A437B689A607B685A687B699BB2E7
:1023F000194601238B40DB431A407B685A607B6897
:102400005B683A68927911467A6992B201FA02F2EF
:1024100092B21A437B685A607B68DA687B699BB228
:102420005B00032101FA03F3DB431A407B68DA60A7
:102430007B68DA683B68DB7919467B695B0001FAE7
:1024400003F31A437B68DA607B6901337B617B6944
:102450000F2B85D91C37BD465DF8047B704700BF44
:1024600080B485B000AF78600B467B800023FB739F
:102470007B681A697B881340002B02D00123FB7311
:1024800001E00023FB73FB7B18461437BD465DF863
:10249000047B704780B483B000AF78600B467B80CC
:1024A0007B687A881A830C37BD465DF8047B7047D9
:1024B00080B483B000AF78600B467B807B687A88FD
:1024C0005A830C37BD465DF8047B704780B485B0F5
:1024D00000AF78600B467B8013467B700023FB6067
:1024E0000023BB607B787A8802F007029200934059
:1024F000FB607B88DB089BB218467B88DB089BB2BD
:102500001A467B68083253F822207B8803F00703C1
:102510009B0019460F238B40DB4302EA03017B68D3
:1025200000F1080243F822107B88DB089BB21A46B0
:102530007B68083253F82220FB681343BB607B881A
:10254000DB089BB21A467B680832B96843F8221050
:102550001437BD465DF8047B704700BF80B500AFFF
:10256000154A154BD3F8883043F47003C2F888300D
:10257000124A124B1B6843F0010313600F4B0022F9
:102580009A600E4A0D4B1B6823F0847323F480334A
:1025900013600A4B0A4A5A60084A084B1B6823F426
:1025A00080231360054B0022DA6000F00BF8024B29
:1025B0004FF000629A6080BD00ED00E000380240FC
:1025C0001030002480B483B000AF00237B60002370
:1025D0003B60354A344B1B6843F480331360324B05
:1025E0001B6803F400333B607B6801337B603B680E
:1025F000002B03D17B68B3F5A06FF0D12A4B1B6889
:1026000003F40033002B02D001233B6001E00023E0
:102610003B603B68012B42D1234A234B1B6C43F0A8
:1026200080531364214A214B1B6843F48043136099
:102630001D4A1D4B9B6893601B4A1B4B9B6843F4D0
:1026400000439360184A184B9B6843F4A05393606F
:10265000154B174A5A60144A134B1B6843F080739A
:10266000136000BF104B1B6803F00073002BF9D000
:10267000104B40F205621A600B4A0B4B9B6823F02B
:1026800003039360084A084B9B6843F0020393607E
:1026900000BF054B9B6803F00C03082BF9D10C37E6
:1026A000BD465DF8047B7047003802400070004072
:1026B00008544007003C024080B485B000AF786009
:1026C0000B4B1B68002B02D1094B0A4A1A60084BBE
:1026D0001B68FB60064B1A687B681344044A13604E
:1026E000FB6818461437BD465DF8047B704700BF91
:1026F000280900207089002080B483B000AF786082
:102700000B46FB70FB78002B06D07B681B6843F000
:1027100001027B681A6005E07B681B6823F00102F8
:102720007B681A600C37BD465DF8047B704700BFBC
:1027300080B483B000AF78607B685B689BB218465A
:102740000C37BD465DF8047B704700BF80B485B090
:1027500000AFF860B9601346FB71BB6803F08003FB
:10276000002B0FD0FB79002B06D0FB685B6943F090
:102770008002FB685A6105E0FB685B6923F0800218
:10278000FB685A61BB68802B14D0FB79002B08D002
:10279000FB681A68BB6803F01E031A43FB681A60E3
:1027A00008E0FB681A68BB6803F01E03DB431A40AD
:1027B000FB681A601437BD465DF8047B704700BFA4
:1027C00080B487B000AF786039600023FB750023C8
:1027D000FB600023BB607B68224A934202D8224BF5
:1027E0003B6101E0214B3B613B6823F0F02323F088
:1027F000C313002B0AD03B68DB0A03F01E03FB6007
:102800007B681A68FB681340BB6004E07B685B6907
:1028100003F08003BB603B6803F00053002B03D040
:102820003B695B68FB6002E03B691B68FB60FB681F
:1028300023F0F02323F08213FB60FA683B68134017
:10284000002B05D0BB68002B02D00123FB7501E0F3
:102850000023FB75FB7D18461C37BD465DF8047BE5
:10286000704700BF0F6402400060024000640240F5
:1028700080B485B000AF786039607B68104A9342BD
:1028800002D8104BFB6001E00F4BFB603B6803F08C
:102890000053002B07D03B6823F0F02323F0821372
:1028A000FA68D36006E03B6823F0F02323F082133C
:1028B000FA6893601437BD465DF8047B704700BF2B
:1028C0000F6402400060024000640240000000000B
:1028D00080B586B000AF78603960786800F040FC61
:1028E00002460B46104619463BA3D3E9002300F0ED
:1028F0009DFC02460B461046194600F0A9FE034611
:102900007B61334B1A687B681344314A1360304B48
:102910001B68002B02DA2E4B00221A602C4B1B681E
:1029200040F6C412934203DD294B40F6C4121A60EC
:10293000274B1B68184600F013FC02460B46104656
:10294000194621A3D3E9002300F070FC02460B4690
:102950001046194600F07CFE03463B611D4B1B6888
:102960003A68D31A184600F0FBFB02460B461046A5
:10297000194615A3D3E9002300F058FC02460B4684
:102980001046194600F064FE0346FB60114A3B689E
:1029900013607A693B691A44FB681344FF2B01DD1D
:1029A000FF230DE07A693B691A44FB681344002B4E
:1029B00001DA002304E07A693B691A44FB68134496
:1029C00018461837BD4680BD9A9999999999993FAB
:1029D0002C090020300900209A9999999999A93FCA
:1029E00080B483B000AF7860054A7B6843F0BF6372
:1029F00043F40033D3600C37BD465DF8047B704769
:102A000000ED00E080B485B000AF78600023FB7378
:102A10000023BB730F237B737B68DB78002B38D0DC
:102A2000264BDB68DB4303F4E0631B0AFB73FB7B91
:102A3000C3F10403BB737A7BFB7B42FA03F37B7322
:102A40007B685B781A46BB7B02FA03F3FB737B68F7
:102A50009A787B7B1340DAB2FB7B1343FB73FB7BDF
:102A60001B01FB73164A7B681B781344FA7B83F8BF
:102A70000023134A7B681B785B09DBB218467B682E
:102A80001B7803F01F03012101FA03F342F8203001
:102A90000FE00B497B681B785B09DBB218467B684B
:102AA0001B7803F01F0301229A4000F1200341F834
:102AB00023201437BD465DF8047B704700ED00E02D
:102AC00000E100E080B483B000AF78607B6803F180
:102AD0003F4303F57E039B0A9BB218460C37BD4665
:102AE0005DF8047B704700BF80B582B000AF7860AE
:102AF0007868FFF7E7FF03461A46012303FA02F15D
:102B0000034A034B1B6B0B4313630837BD4680BD61
:102B10000038024080B584B000AF786008461146A6
:102B20001A4603467B800B467B7013463B707868E1
:102B3000FFF7DAFF7B783B733B78BB733B7E7B739D
:102B40003B7FFB737B88BB6007F1080378681946FD
:102B5000FFF7F8FB1037BD4680BD00BF80B485B0DD
:102B600000AF786039600023FB817B681B88FB81A4
:102B70007B68284A934213D07B68274A93420FD040
:102B80007B68B3F1804F0BD07B68244A934207D017
:102B90007B68234A934203D07B68224A934208D140
:102BA000FB8923F07003FB813B685A88FB89134340
:102BB000FB817B681C4A93420CD07B681B4A934282
:102BC00008D0FB8923F44073FB813B681A89FB8999
:102BD0001343FB817B68FA891A803B685A687B68DB
:102BE000DA623B681A887B681A857B68094A9342D7
:102BF00003D07B68084A934204D13B689B7A9AB21F
:102C00007B681A867B6801229A821437BD465DF87C
:102C1000047B7047000001400004014000040040B4
:102C200000080040000C004000100040001400406C
:102C300080B483B000AF78607B684FF0FF325A6099
:102C40007B6800221A807B6800221A817B68002240
:102C50005A807B6800229A720C37BD465DF8047B6F
:102C6000704700BF80B483B000AF78600B46FB7044
:102C7000FB78002B08D07B681B889BB243F0800355
:102C80009AB27B681A8007E07B681B889BB223F0AE
:102C900080039AB27B681A800C37BD465DF8047BCE
:102CA000704700BF80B483B000AF78600B46FB7004
:102CB000FB78002B08D07B681B889BB243F0010394
:102CC0009AB27B681A8007E07B681B889BB223F06E
:102CD00001039AB27B681A800C37BD465DF8047B0D
:102CE000704700BF80B485B000AF786039600023C2
:102CF0007B810023FB810023BB817B681B8C9BB203
:102D000023F001039AB27B681A847B681B8CFB81D9
:102D10007B689B88BB817B681B8B7B817B8923F0D5
:102D200070037B817B8923F003037B813B681A88D6
:102D30007B8913437B81FB8923F00203FB813B6882
:102D40009A89FB891343FB813B685A88FB891343AB
:102D5000FB817B681E4A934203D07B681D4A9342E5
:102D600023D1FB8923F00803FB813B68DA89FB89C7
:102D70001343FB81FB8923F00403FB813B689A88A2
:102D8000FB891343FB81BB8923F48073BB81BB891F
:102D900023F40073BB813B681A8ABB891343BB8150
:102DA0003B685A8ABB891343BB817B68BA899A8086
:102DB0007B687A891A833B689A687B685A637B6868
:102DC000FA891A841437BD465DF8047B704700BF4A
:102DD000000001400004014080B483B000AF78607F
:102DE0007B6800221A807B6800225A807B68002260
:102DF0009A807B6800229A607B6800229A817B68B7
:102E00000022DA817B6800221A827B6800225A82C3
:102E10000C37BD465DF8047B704700BF80B485B0B9
:102E200000AF78600B467B800023FB817B681B8BA7
:102E3000FB81FB8923F00803FB81FA897B8813431C
:102E4000FB817B68FA891A831437BD465DF8047BE1
:102E5000704700BF80B483B000AF78600B467B80C2
:102E600013467B707B78002B08D07B689B899AB2D5
:102E70007B8813439AB27B689A8109E07B689B89BF
:102E80009AB27B88DB439BB213409AB27B689A81EB
:102E90000C37BD465DF8047B704700BF80B483B03B
:102EA00000AF78600B467B807B88DB439AB27B68FF
:102EB0001A820C37BD465DF8047B704781F00041F3
:102EC00002E000BF83F0004330B54FEA41044FEA0F
:102ED000430594EA050F08BF90EA020F1FBF54EAAA
:102EE000000C55EA020C7FEA645C7FEA655C00F046
:102EF000E2804FEA5454D4EB5555B8BF6D420CDD17
:102F00002C4480EA020281EA030382EA000083EA99
:102F1000010180EA020281EA0303362D88BF30BD39
:102F200011F0004F4FEA01314FF4801C4CEA11318F
:102F300002D0404261EB410113F0004F4FEA0333EE
:102F40004CEA133302D0524263EB430394EA050F79
:102F500000F0A780A4F10104D5F1200E0DDB02FAE8
:102F60000EFC22FA05F2801841F1000103FA0EF27C
:102F7000801843FA05F359410EE0A5F120050EF142
:102F8000200E012A03FA0EFC28BF4CF0020C43FA73
:102F900005F3C01851EBE37101F0004507D54FF080
:102FA000000EDCF1000C7EEB00006EEB0101B1F5D0
:102FB000801F1BD3B1F5001F0CD349085FEA300016
:102FC0004FEA3C0C04F101044FEA445212F5800F21
:102FD00080F09A80BCF1004F08BF5FEA500C50F1BE
:102FE000000041EB045141EA050130BD5FEA4C0CA1
:102FF000404141EB010111F4801FA4F10104E9D12A
:1030000091F0000F04BF01460020B1FA81F308BF20
:103010002033A3F10B03B3F120020CDA0C3208DDEC
:1030200002F1140CC2F10C0201FA0CF021FA02F1C7
:103030000CE002F11402D8BFC2F1200C01FA02F137
:1030400020FA0CFCDCBF41EA0C019040E41AA2BF5C
:1030500001EB0451294330BD6FEA04041F3C1CDA24
:103060000C340EDC04F11404C4F1200220FA04F044
:1030700001FA02F340EA030021FA04F345EA0301EE
:1030800030BDC4F10C04C4F1200220FA02F001FAB0
:1030900004F340EA0300294630BD21FA04F0294632
:1030A00030BD94F0000F83F4801306BF81F48011CB
:1030B0000134013D4EE77FEA645C18BF7FEA655C3E
:1030C00029D094EA050F08BF90EA020F05D054EA10
:1030D000000C04BF1946104630BD91EA030F1EBF15
:1030E0000021002030BD5FEA545C05D14000494119
:1030F00028BF41F0004130BD14F580043CBF01F50C
:10310000801130BD01F0004545F0FE4141F47001F1
:103110004FF0000030BD7FEA645C1ABF19461046CC
:103120007FEA655C1CBF0B46024650EA013406BFCD
:1031300052EA033591EA030F41F4002130BD00BF8C
:1031400090F0000F04BF0021704730B54FF4806449
:1031500004F132044FF000054FF0000150E700BFCA
:1031600090F0000F04BF0021704730B54FF4806429
:1031700004F1320410F0004548BF40424FF0000116
:103180003EE700BF42004FEAE2014FEA31014FEA59
:1031900002701FBF12F07F4393F07F4F81F06051A8
:1031A000704792F0000F14BF93F07F4F704730B517
:1031B0004FF4607401F0004521F0004120E700BFAA
:1031C00050EA010208BF704730B54FF000050AE031
:1031D00050EA010208BF704730B511F0004502D532
:1031E000404261EB41014FF4806404F132045FEA34
:1031F000915C3FF4DCAE4FF003025FEADC0C18BFD9
:1032000003325FEADC0C18BF033202EBDC02C2F1CE
:10321000200300FA03FC20FA02F001FA03FE40EA60
:103220000E0021FA02F11444C1E600BF70B54FF060
:10323000FF0C4CF4E06C1CEA11541DBF1CEA135542
:1032400094EA0C0F95EA0C0F00F0DEF82C4481EAAA
:10325000030621EA4C5123EA4C5350EA013518BFCA
:1032600052EA033541F4801143F4801338D0A0FBB7
:1032700002CE4FF00005E1FB02E506F00042E0FB64
:1032800003E54FF00006E1FB03569CF0000F18BF6A
:103290004EF0010EA4F1FF04B6F5007F64F5407412
:1032A00004D25FEA4E0E6D4146EB060642EAC621A5
:1032B00041EA55514FEAC52040EA5E504FEACE2E12
:1032C000B4F1FD0C88BFBCF5E06F1ED8BEF1004F15
:1032D00008BF5FEA500E50F1000041EB045170BD91
:1032E00006F0004646EA010140EA020081EA0301D5
:1032F000B4EB5C04C2BFD4EB0C0541EA045170BDD1
:1033000041F480114FF0000E013C00F3AB8014F14A
:10331000360FDEBF002001F0004170BDC4F1000493
:10332000203C35DA0C341BDC04F11404C4F1200514
:1033300000FA05F320FA04F001FA05F240EA02006F
:1033400001F0004221F0004110EBD37021FA04F6A5
:1033500042EB06015EEA430E08BF20EAD37070BD5F
:10336000C4F10C04C4F1200500FA04F320FA05F0BE
:1033700001FA04F240EA020001F0004110EBD370C0
:1033800041F100015EEA430E08BF20EAD37070BD30
:10339000C4F1200500FA05F24EEA020E20FA04F309
:1033A00001FA05F243EA020321FA04F001F00041B8
:1033B00021FA04F220EA020000EBD3705EEA430E29
:1033C00008BF20EAD37070BD94F0000F0FD101F058
:1033D0000046400041EB010111F4801F08BF013C91
:1033E000F7D041EA060195F0000F18BF704703F0CF
:1033F0000046520043EB030313F4801F08BF013D56
:10340000F7D043EA0603704794EA0C0F0CEA135511
:1034100018BF95EA0C0F0CD050EA410618BF52EACB
:103420004306D1D181EA030101F000414FF00000D1
:1034300070BD50EA410606BF1046194652EA4306DF
:1034400019D094EA0C0F02D150EA013613D195EA53
:103450000C0F05D152EA03361CBF104619460AD19B
:1034600081EA030101F0004141F0FE4141F47001A5
:103470004FF0000070BD41F0FE4141F4780170BD95
:1034800070B54FF0FF0C4CF4E06C1CEA11541DBFFA
:103490001CEA135594EA0C0F95EA0C0F00F0A7F8FC
:1034A000A4EB050481EA030E52EA03354FEA013129
:1034B00000F088804FEA03334FF0805545EA13133C
:1034C00043EA12634FEA022245EA111545EA106504
:1034D0004FEA00260EF000419D4208BF964244F19B
:1034E000FD0404F5407402D25B084FEA3202B61ABA
:1034F00065EB03055B084FEA32024FF480104FF48E
:10350000002CB6EB020E75EB030E22BFB61A754601
:1035100040EA0C005B084FEA3202B6EB020E75EB94
:10352000030E22BFB61A754640EA5C005B084FEAFC
:103530003202B6EB020E75EB030E22BFB61A7546C9
:1035400040EA9C005B084FEA3202B6EB020E75EBD4
:10355000030E22BFB61A754640EADC0055EA060E95
:1035600018D04FEA051545EA16754FEA06164FEAD8
:10357000C30343EA52734FEAC2025FEA1C1CC0D184
:1035800011F4801F0BD141EA00014FF000004FF011
:10359000004CB6E711F4801F04BF01430020B4F1D2
:1035A000FD0C88BFBCF5E06F3FF6AFAEB5EB030C8A
:1035B00004BFB6EB020C5FEA500C50F1000041EB87
:1035C000045170BD0EF0004E4EEA113114EB5C0454
:1035D000C2BFD4EB0C0541EA045170BD41F4801127
:1035E0004FF0000E013C90E645EA060E8DE60CEA2F
:1035F000135594EA0C0F08BF95EA0C0F3FF43BAF4C
:1036000094EA0C0F0AD150EA01347FF434AF95EA02
:103610000C0F7FF425AF104619462CE795EA0C0FE6
:1036200006D152EA03353FF4FDAE1046194622E7B3
:1036300050EA410618BF52EA43067FF4C5AE50EA8D
:1036400041047FF40DAF52EA43057FF4EBAE12E77D
:103650004FEA410212F5001215D211D56FF47873BA
:10366000B3EB625212D94FEAC12343F0004343EA5D
:10367000505311F0004F23FA02F018BF4042704738
:103680004FF00000704750EA013005D111F00040C2
:1036900008BF6FF0004070474FF00000704700BF58
:1036A000844641EA000313F003036DD1403A41D34D
:1036B00051F8043B40F8043B51F8043B40F8043B0C
:1036C00051F8043B40F8043B51F8043B40F8043BFC
:1036D00051F8043B40F8043B51F8043B40F8043BEC
:1036E00051F8043B40F8043B51F8043B40F8043BDC
:1036F00051F8043B40F8043B51F8043B40F8043BCC
:1037000051F8043B40F8043B51F8043B40F8043BBB
:1037100051F8043B40F8043B51F8043B40F8043BAB
:1037200051F8043B40F8043B51F8043B40F8043B9B
:10373000403ABDD2303211D351F8043B40F8043B3B
:1037400051F8043B40F8043B51F8043B40F8043B7B
:1037500051F8043B40F8043B103AEDD20C3205D34B
:1037600051F8043B40F8043B043AF9D2043208D043
:10377000D2071CBF11F8013B00F8013B01D30B88B5
:1037800003806046704700BF082A13D38B078DD093
:1037900010F003038AD0C3F10403D21ADB071CBF65
:1037A00011F8013B00F8013B80D331F8023B20F8CF
:1037B000023B7BE7043AD9D3013A11F8013B00F808
:1037C000013BF9D20B7803704B7843708B78837090
:1037D000604670470EB4F0B59CB021AB0F4953F86A
:1037E000042B019305466FF00044086802954FF4DE
:1037F00002774FF6FF7602A90695ADF8147004948F
:103800000794ADF8166000F00BF8029B00221A70C6
:103810001CB0BDE8F04003B0704700BF400400207A
:103820002DE9F04FBFB0894606920A93049002F04A
:103830004BFA03681393184603F05CF8B9F80C30A0
:1038400014901A0604D5D9F81030002B01F0A1808D
:103850009FED997B8DED107B00232EAF0F9323936B
:10386000229312931593079321973C464E46069D4B
:103870002B78002B00F0A980252B02D1A5E0252B69
:1038800003D015F8013F002BF9D1069BEB1A73B159
:10389000229A23990698206001321944072A63600E
:1038A0002391229272DC0834079A1A4407922B78EB
:1038B000002B00F0CB870023691C6D788DF86730F2
:1038C0001A46089303934FF0FF3A4B1CA5F12001D1
:1038D000582900F2E483DFE811F07702E203E20303
:1038E0007B03E203E203E203E203E203E203F70203
:1038F0001402E203FB011802E2038203C102C102C7
:10390000C102C102C102C102C102C102C102E2037D
:10391000E203E203E203E203E203E203E203E2037F
:10392000E203D0029103E2039103E203E203E20324
:10393000E2037403E203E2030C03E203E203E203A3
:10394000E203E2032A03E203E2034403E203E203A5
:10395000E203E203E203E203E203E203E203E2033F
:103960005F03330291039103910305033302E203E2
:10397000E203ED02E20385020202CB037E02E203D0
:103980009902E2037A00E203E203510204980393EE
:10399000314621AA02F0DCFF50B93C46039B83E785
:1039A0000498314621AA02F0D3FF002800F08C8150
:1039B000B146B9F80C3013F0400F079B18BF4FF019
:1039C000FF3318463FB0BDE8F08F069D6FE70693C2
:1039D000039B980640F1B4820A9B03F1070929F082
:1039E000070303F10802D3E900890A9201234FF08B
:1039F000000C8DF867C0CDF834A0BAF1000F03DBDE
:103A0000039A22F08002039258EA090240F0578399
:103A1000BAF1000F00F05C84012B00F05A83022BF6
:103A200000F09A8439464FEAD80242EA49724FEAD6
:103A3000D90008F0070381469046303358EA09025E
:103A400001F8013DEFD1039A0C91D20700F16E8588
:103A50007B1A0993099A92455346B8BF13460593BA
:103A600000230E93BCF1000F02D0059B0133059398
:103A7000039B13F002030B9302D0059B02330593C3
:103A8000039B13F0840940F01783089B059AC2EB4F
:103A90000308B8F1000F40F30F83B8F1100F23991A
:103AA000229ADFF81CA030DD53464FF0100BC246BF
:103AB000A8461D460DE000BF000000000000000009
:103AC000FC780008AAF1100ABAF1100F04F10804FA
:103AD00017DD01321031072A2391229284E8200851
:103AE000F0DD0498314621AA02F032FF00287FF46D
:103AF0005FAFAAF1100ABAF1100F2399229A3C463F
:103B0000E7DC2B464546D0469A46013208EB010BCE
:103B1000072ACDF88CB02292C4F800A0C4F8048023
:103B200000F37E849DF867C00834BCF1000F0FD00D
:103B3000229B01330BF1010B0DF167010122072BD1
:103B4000CDF88CB0229384E8060000F3EA830834B1
:103B50000B9B73B1229B01330BF1020B1AA90222BA
:103B6000072BCDF88CB0229384E8060000F3CD83B8
:103B70000834B9F1800F00F015830D9B099AC2EB50
:103B8000030ABAF1000F3CDDBAF1100F229ADFF8F8
:103B900064942BDD49465B46A9464FF01008DDF8DA
:103BA00010B00D4606E0AAF1100ABAF1100F04F1A8
:103BB000080417DD01321033072A2393229284E888
:103BC0002001F0DD5846314621AA02F0C1FE00284E
:103BD0007FF4EEAEAAF1100ABAF1100F239B229ADD
:103BE0003C46E7DC9B462B464D4699460132D34482
:103BF000072ACDF88CB0229284E8000600F379837E
:103C00000834039BD90500F17082229B09990C9A14
:103C1000226001338B44072BCDF88CB06160229376
:103C200000F34A830834039B5A0741D5089B059A41
:103C30009D1A002D3CDD102D229BDFF8BCA323DD57
:103C40004FF010085A46DDF8109004E0103D102D9A
:103C500004F1080417DD01331032072B239222935D
:103C6000C4F800A0C4F80480F0DD4846314621AA1B
:103C700002F06EFE00287FF49BAE103D102D239ABB
:103C8000229B3C46E7DC93460133AB44072BCDF83F
:103C90008CB02293C4F800A0656009DD0498314619
:103CA00021AA02F055FE00287FF482AEDDF88CB028
:103CB000079B059A08998A42ACBF9B185B1807932B
:103CC000BBF1000F7FF46CAE002322933C46CEE59F
:103CD000194603981D7840F004000390F5E506931B
:103CE000039B13F0200300F00E810A9B03F10709E8
:103CF00029F0070303F10802D3E900890A9200239F
:103D000075E61D7819462B22DFE51D782A2D03F173
:103D1000010100F0B887A5F1300009280B464FF0EB
:103D2000000A3FF6D3AD13F8015B0AEB8A0A00EBF9
:103D30004A0AA5F130000928F5D94AEAEA7AC5E528
:103D40000693039B8DF867209B0640F1A1800A9B98
:103D500003F1070929F00709D9E9002309F108014E
:103D60000A9190469946002A73F10003C0F20E842E
:103D70009DF867C0CDF834A001233EE606939B4B27
:103D80001293039B8DF867209B0640F1F3800A9BFA
:103D900003F1070929F00703D3E9008903F10802B9
:103DA0000A92039BD90740F1F58058EA090300F015
:103DB000F180039A8DF86950302342F002028DF8A9
:103DC00068300392022312E61D781946002A7FF418
:103DD0007CAD202279E5039941F0200103911D7803
:103DE000194672E50693039B8DF867209A0640F109
:103DF000B08407990A9A4FEAE17913680846884621
:103E0000043249460A92C3E9000130E50A9A069352
:103E100013680C934FF0000B8DF867B002F10409A2
:103E2000002B00F04686BAF1000F0C98C0F2F68520
:103E30005946524602F0DAF9002800F077860C9BCA
:103E4000CDF834B0C31A0993CDF8289023EAE37370
:103E50000593CDF838B09DF867C003E6A5F13000B2
:103E6000002113F8015B01EB810100EB4101A5F199
:103E700030000928F5D9089128E50693039B8DF8B1
:103E8000672043F010030393039B9B063FF55FAF4E
:103E9000039BD80600F16B83039B590640F16783AF
:103EA0000A99B1F9008004314FEAE87942464B465D
:103EB0000A9158E71D7803996C2D00F0D38441F0E6
:103EC00010010391194600E50A9D296808910846EA
:103ED0000028294601F10401C0F2CB840A911D7823
:103EE0001946F2E4039941F0400103911D78194607
:103EF000EBE40693039B43F010030393039B13F03F
:103F000020037FF4F2AE039A12F0100240F01C83FB
:103F1000039B13F0400300F017830A9913460A46E7
:103F20000432B1F800800A924FF000095FE5069371
:103F3000039B43F010030393039B98063FF54CAD9E
:103F4000039BD90600F10983039B5A0640F10583C0
:103F50000A9AB2F8008004324FF0000901230A9255
:103F600045E50693224B1293039B8DF867209B0631
:103F70003FF50DAF039BD80640F1DC830A9A134648
:103F80001B689846039B0432D9070A924FF0000938
:103F90003FF50BAF02232AE50A9906930A688DF8CC
:103FA00090200023012204319C4605920A918DF84D
:103FB000673024ABCDF834C0CDF838C009920C93EB
:103FC00056E5039941F0080103911D7819467CE4F8
:103FD000039941F0010103911D78194675E4039995
:103FE00041F0800103911D7819466EE43079000894
:103FF0001C79000850790008FC7800080693039BA0
:104000008DF8672013F0080F0A9BD34603F10709C8
:1040100000F0868329F0070393ED007B8DED107B84
:1040200003F108020A929DED100B02F023FC012817
:1040300040F05A83DDE910010022002303F068F903
:10404000002840F06B859DF867C0039BBD4ADFF8F0
:1040500000E323F080030393134603210020472D40
:10406000D8BF734605910D900C9309910E90F9E419
:104070000A9803990693302203688DF86820024657
:10408000782541F0020104329846AF4B1293039118
:104090000A924FF000098DF869500223A7E40693B5
:1040A0008DF86720002D00F0D183002301229C466B
:1040B00005928DF890507AE7DDF88CB035E5012B4C
:1040C0007FF4ADACB9F1000F08BFB8F10A0F80F072
:1040D0000D820DF1F80B08F130080BF8418DCBEB98
:1040E00007030993CDF830B0B4E4652D40F3A08008
:1040F000DDE910010022002303F000F9002800F0A0
:104100004481229B914A226001330BF1010B012271
:10411000072BCDF88CB02293626000F33F83083404
:104120001B9B0F9A934203DB039BDA077FF57BAD62
:10413000229B1499139A226001338B44072BCDF8EC
:104140008CB06160229300F39B8308340F9B5D1E4B
:10415000002D7FF768AD102D229BDFF8F89140F31A
:10416000B9814FF010085A46DDF810A004E0083479
:10417000103D102D40F3AD8101331032072B2392F7
:104180002293C4F80090C4F80480F0DD5046314614
:1041900021AA02F0DDFB00287FF40AAC239A229BBF
:1041A0003C46E5E7089B059AC2EB030ABAF1000F0B
:1041B0007FF7E3ACBAF1100F229ADFF898912BDD6C
:1041C00049465B46A9464FF01008DDF810B00D4691
:1041D00006E0AAF1100ABAF1100F04F1080417DD85
:1041E00001321033072A2393229284E82001F0DD64
:1041F0005846314621AA02F0ABFB00287FF4D8AB29
:10420000AAF1100ABAF1100F239B229A3C46E7DC70
:104210009B462B464D4699460132D344072ACDF89A
:104220008CB0229284E8000600F351820834A4E4A2
:104230000F9B229D012B40F31F820C9B23600135B5
:104240000BF101030122072D23932295626000F3F5
:104250002582083414996160013503EB010B072DA9
:10426000139BCDF88CB02295236000F32382083491
:104270000023DDE91001002203F040F80F9B002825
:1042800040F0DD800C9A013B013501329B44072D43
:104290002295CDF88CB02260636000F30D81083464
:1042A000159A6260013593441DAB072DCDF88CB093
:1042B000229523607FF7B6AC0498314621AA02F01C
:1042C00047FB00287FF474ABDDF88CB03C46AAE4D1
:1042D000002B32D1039BD8072FD50DF1F80B3023DB
:1042E0000BF8413DCBEB07030993CDF830B0FFF756
:1042F000B1BB0498314621AA02F02AFB00287FF4C2
:1043000057ABDDF88CB03C467BE40498314621AADB
:1043100002F01EFB00287FF44BABDDF88CB03C466E
:1043200027E40498314621AA02F012FB00287FF40A
:104330003FABDDF88CB03C460AE4CDF824A00C97E6
:10434000FFF788BB10790008307900084C79000825
:104350000C790008507900081298BB464FEA1813F0
:1043600008F00F0143EA09734FEA19129846914683
:10437000435C0BF8013D58EA0903EFD15B46CDF8E9
:1043800030B0FB1A0993FFF765BB1B9D002D40F36E
:1043900011820F9A0E998A421346A8BF0B461D46FA
:1043A0000C99002D01EB020A0BDD229B21600133E9
:1043B000AB44072BCDF88CB06560229300F3558396
:1043C00008340E9B002DA8BF5B1B002B1D4640F33D
:1043D000F580102D229BDFF8089640F3D2815A46D3
:1043E0004FF01008DDF810B004E00834103D102D37
:1043F00040F3C68101331032072B23922293C4F875
:104400000090C4F80480F0DD5846314621AA02F03D
:104410009FFA00287FF4CCAA239A229B3C46E5E72A
:104420000498314621AA02F093FA00287FF4C0AA2A
:104430009DF867C0DDF88CB03C46FFF776BB03F112
:10444000FF38B8F1000F7FF72BAFB8F1100FDFF88E
:10445000909525DD5B464FF0100ADDF810B006E0C0
:10446000A8F11008B8F1100F04F1080417DD0135A8
:104470001033072D2393229584E80006F0DD58467B
:10448000314621AA02F064FA00287FF491AAA8F12B
:104490001008B8F1100F239B229D3C46E7DC9B4699
:1044A0000135C344072DCDF88CB02295C4F8009097
:1044B000C4F804807FF7F3AE0498314621AA02F0D5
:1044C00047FA00287FF474AADDF88CB0229D3C46A0
:1044D000E6E693460133AB44072BCDF88CB022932C
:1044E000C4F8009065607FF79DABE5E6BB46CDF86C
:1044F00014C0404649460A22002302F031FF303200
:10450000404649460BF8012D00230A2202F028FFFD
:104510008046894658EA0903EBD15B46FB1ADDF871
:1045200014C0CDF830B00993FFF794BA302B0C9B30
:104530003FF427AF013B1A460C93BA1A3023099275
:1045400001F8013CFFF786BA0A990A6804310A911A
:1045500090464FF00009FFF74ABA0A990A680431F9
:1045600001230A9190464FF00009FFF740BA0A9ADA
:10457000136898464FEAE3791346043342460A9398
:10458000002A4B4673F10003BFF6F2AB4FF02D0C3F
:10459000D8F1000869EB49098DF867C0CDF834A05F
:1045A0000123FFF72ABA0498314621AA02F0D0F974
:1045B00000287FF4FDA9DDF88CB03C460C9A0E99DA
:1045C0001B9B0A4490460F9A934246DB039AD007FE
:1045D00043D40F9AC8EB0A05D31A9D42A8BF1D46C3
:1045E000002D0CDD229AC4F800800132AB44072A6A
:1045F000CDF88CB06560229200F36F820834002DF4
:10460000ACBF5D1B1D46002D7FF70DAB102D229B0F
:10461000DFF8CC937FF75EAF4FF010085A46DDF815
:1046200010A004E00834103D102D7FF752AF013385
:104630001032072B23922293C4F80090C4F8048010
:10464000F0DD5046314621AA02F082F900287FF4BD
:10465000AFA9239A229B3C46E5E7229A1498139926
:10466000216001328344072ACDF88CB06060229229
:1046700000F307820834ACE7039BD9073FF5DDADB3
:104680000C9B236001350BF1010B0123072DCDF8A5
:104690008CB0229563607FF702AE0DE70498314637
:1046A00021AA02F055F900287FF482A9239B229DBC
:1046B0003C46CFE50498314621AA02F049F900288A
:1046C0007FF476A9DDF88CB0229D3C46D0E50498B5
:1046D000314621AA02F03CF900287FF469A9DDF8EF
:1046E0008CB03C46FFF749BA9DED100B02F0C2F8C2
:1046F000002840F0D1808646B64AB74B0D9003980B
:104700009DF867C0CDF838E0032120F08000472DE8
:10471000D8BF1A46059103900C920991FFF7A2B9F0
:1047200029F0070999ED007B09F108038DED107B55
:104730000A9378E4039B0A9A13F0400F13463FF460
:104740001FAC0433B2F800800A934FF00009FFF762
:1047500028BB039BDB060BD4039B5D0608D50A9A96
:10476000136804320A92BDF81C201A80FFF77FB844
:104770000A9A136804320A92079A1A60FFF777B808
:1047800093460133AB44072BCDF88CB02293C4F889
:10479000009065603FF707AF08340FE70498314693
:1047A00021AA02F0D5F800287FF402A9DDF88CB028
:1047B0003C46B5E4229B894A226001330BF1010B90
:1047C0000122072BCDF88CB02293626000F3F180B8
:1047D00008342DB90F9B1BB9039BDB077FF523AA78
:1047E000229B1498139A226001330BEB0001072BD4
:1047F00023916060229300F3EF8104F108026D427F
:10480000002D40F3FA80102DDFF8D49140F346815B
:104810001024DDF8108004E00832103D102D40F324
:104820003D8101331031072B23912293C2F8009070
:104830005460F1DD4046314621AA02F089F8002893
:104840007FF4B6A82399229B3A46E6E7239BB1461C
:10485000002B3FF4AEA80498314621AA02F078F864
:10486000FFF7A7B841F0200103915D78591CFFF7CD
:104870002CB808980A91404208901946FFF729BAC7
:104880000498314621AA02F063F800287FF490A82A
:10489000DDF88CB03C4659E425F02003BAF1FF3F27
:1048A000059300F09380472B05D1BAF1000F14BF98
:1048B000D3464FF0010B119B039A002B42F48072F8
:1048C0000B92C0F2A4819DED107B8DED167B4FF015
:1048D000000A662D00F0AC80462D00F0A980059BF3
:1048E0000498452B0CBF0BF10109D9461CAA1FAB3C
:1048F0008DE80C009DED160B02214A461BAB00F023
:104900008FFA672D0C9002D0472D40F09F80039BBB
:10491000DB0740F192810C9B03EB0908DDE91601EE
:104920000022002302F0EAFC002840F0FD801F9BDB
:10493000984506D930215A1C1F9219701F9B984523
:10494000F9D80C9A9B1A0F93059B472B1B9B00F0E1
:10495000DE80652D40F3F880662D0E9300F06081B7
:104960000F9B0E9A934200F34481039BD90700F1F9
:10497000668122EAE2730992BAF1000F40F0BC802E
:1049800005930B9B0393CDF834A09DF867C0FFF708
:1049900069B80498402101F09BF9C9F80000C9F8F2
:1049A0001000002800F097814023C9F81430FEF76A
:1049B0004FBF0498314621AA01F0CAFF00287EF4B7
:1049C000F7AF1B9DDDF88CB03C4602E74FF0060BBD
:1049D00071E700BF18790008147900084C790008C5
:1049E000507900080498314621AA01F0B1FF00284F
:1049F0007EF4DEAF2399229B3A460F9C546001332C
:104A000001EB040B072B0C99CDF88CB022931160AD
:104A10003FF752AC02F10804FFF705B9CDF834B006
:104A200001F068FFCDF8289009900346FFF70EBA11
:104A30001CAA1FAB8DE80C0004989DED160B0321FA
:104A40005A461BAB00F0ECF9D9460C900C9B03EBDB
:104A50000908059B462B7FF461AF0C9B1B78302B1C
:104A600000F003811B9B984458E70498314621AA23
:104A700001F06EFF00287EF49BAFDDF88CB03C4661
:104A80009FE40498314621AA01F062FF00287EF4D9
:104A90008FAF1B9BDDF88CB03C469AE5013329446F
:104AA000072B23912293C2F8009055609ADC0832BC
:104AB000A3E75346062B28BF0623099323EAE37393
:104AC000DDF830C00593874BCDF82890CDF834C081
:104AD000CDF838C00C93FEF7C5BF0498314621AA23
:104AE00001F036FF00287EF463AF1B9B0F9ADDF8C0
:104AF0008CB0D31A3C4682E505930B9B03934FF091
:104B00002D0C00238DF867C00D93FEF7AEBFDA1CA5
:104B100019DB9B4517DB0E93672521E74FF02D0C22
:104B20008DF867C0FFF791BA43460AE72AEAEA73AD
:104B30000D90CDF828900E909DF867C00593CDF8A4
:104B400024A0FEF78FBF023D013B002B1B93BABF91
:104B50005B422D222B22092B8DF874508DF8752085
:104B60007BDD0DF1830E70465F4A82FB0321DA176D
:104B7000C2EBA10202EB8201A3EB410303F130017E
:104B8000092A134600F8011DEEDC02463033D9B283
:104B900002F8011D964540F29B800DF17602034616
:104BA00001E013F8011B02F8011B7345F9D121AB99
:104BB0001B1A0DF1760213441DAA9B1A0F9A159326
:104BC000012A1344099374DD099B002201330993E0
:104BD0000E9223EAE373CFE60498314621AA01F04E
:104BE000B7FE00287EF4E4AE1B9D2399229B3A4633
:104BF00005E60E9B002BD8BFC3F102080F9BC8BF70
:104C00004FF001084344099323EAE373B4E6DDE976
:104C1000100101F10043169017934FF02D0A58E64A
:104C2000002B3DDDBBF1000F0FD1039BDB070CD444
:104C30000E9A099222EAE2739EE61F9B81E60E9B82
:104C40000133099323EAE37396E60E9B0BF1010807
:104C50004344099323EAE3738EE6303330228DF820
:104C600077308DF876201EABA6E7DDE9160100222D
:104C7000002302F043FB00287FF4F4AEC9F10103E6
:104C80001B9398444AE60A9DD5F800A028460430B4
:104C9000BAF1000F5D780A90BEF617AEFEF713BEAC
:104CA000BBF1000F0ED1039BD8070BD4012309934E
:104CB00062E6039B13F0010386D10E93099B23EA5E
:104CC000E37359E60BF10203099323EAE37353E616
:104CD0000DF1760370E7049A0C2313604FF0FF3058
:104CE000FEF770BE4479000867666666AFF3008021
:104CF00002690B69934200F38F802DE9F04F03F1B5
:104D0000FF3801F1140700F1140B57F828205BF865
:104D100028304FEA880483B00132B3FBF2F90BEB81
:104D20000403009407EB040A0193B9F1000F3BD090
:104D300000263246BC46DE4634465CF8046BDEF89C
:104D40000050B3B2360C03FB094406FB09F606EB30
:104D50001446A3B2D31AB4B213FA85F3C4EB1544C4
:104D600004EB23449BB243EA0443E2454FEA244266
:104D70004EF8043B4FEA1644DFD2009B5BF8033049
:104D800093B9019C231F9B450CD254F8043C4BB9AA
:104D9000A4F1080302E01A68043B1AB99B4508F124
:104DA000FF38F8D3C0F81080044601F077FC0028E3
:104DB0002EDB09F101095D46002357F8041B286822
:104DC0008AB29A1A090C12FA80F2C1EB104303EB73
:104DD000224391B241EA0341BA4545F8041B4FEA28
:104DE0002343EAD25BF828200BEB880382B91A1F11
:104DF00093450BD253F8042C42B9083B02E01A68E1
:104E0000043B1AB99B4508F1FF38F8D3C4F8108069
:104E1000484603B0BDE8F08F002070470000000056
:104E20002DE9F04F99B004460391016C229D049343
:104E300092468DED000B41B1426C4A6001239340D4
:104E40008B6001F047FA00232364DDE90023002B87
:104E5000994636DB00232B60A54B1A4609EA03036B
:104E6000934217D0DDE9006700220023304639461F
:104E700002F044FA804600282BD0049A01231360E4
:104E8000239B002B00F0CC809A481860013819B0A1
:104E9000BDE8F08F049A42F20F731360009B002B61
:104EA00000F0A7809448239B002BF0D0C378002B00
:104EB00000F0B88000F10803239A136019B0BDE830
:104EC000F08F019A012322F000492B60CDF8049065
:104ED000C2E7204647EC106B17A916AA01F06CFC3C
:104EE0005FEA1955834640F08D80DDF85880179DA4
:104EF0006FF4826345449D42C0F29E827F4A521BFA
:104F000009FA02F9009A05F2124322FA03F049EA7B
:104F10000000FEF715F90123013DA1F1F8710F938F
:104F20000022774BFDF7CEFF6BA3D3E90023FEF7FA
:104F30007DF96BA3D3E90023FDF7C6FF064628469B
:104F40000F46FEF70DF968A3D3E90023FEF76EF9CB
:104F500002460B4630463946FDF7B6FF06460F4679
:104F6000FEF776FB3946059000223046002302F01A
:104F7000CFF9002840F0AB81059B162B00F2A481ED
:104F8000059A604B03EBC203D3E90001DDE900237E
:104F900002F0DCF9002800F05582059B013B0593E7
:104FA00000230D93C5EB08056B1E069300F1A68147
:104FB00000230793059B002BC0F29781069A0C9360
:104FC00011461944002306910A93039B092B2BD801
:104FD000052B40F37386043B03930027039B023B9E
:104FE000032B00F25186DFE813F0D103C403B602AD
:104FF0006606414B444AC9F31300002814BF184603
:10500000104650E7C7F3130343F07F51CDF83C80BF
:105010003046A5F2FF3541F44011DDF858807FE7B6
:105020003A4834E7C31C47E70021616420468A46BA
:10503000039101F029F94FF0FF3308930E930123F8
:10504000099020640B93179B002BC0F2D380059A24
:105050000E2A00F3CF802B4BBAF1000F03EBC203F3
:10506000D3E90089C0F29583DDE9006742464B46EB
:1050700030463946FEF704FAFEF7EAFA8246FEF7B2
:105080006FF842464B46FEF7D1F80B4602463946CA
:105090003046FDF717FF099D0AF130032B70089B7E
:1050A000012B06460F4605F1010563D00022184B7F
:1050B000FEF7BCF80022002306460F4602F01EF958
:1050C000002840F08480CDF800B00394DDF824B0CF
:1050D000089C2AE0AFF3008061436F63A787D23F4B
:1050E000B3C8608B288AC63FFB799F501344D33FD7
:1050F0000000F07F4D7900086C7900080EFCFFFF7E
:105100000000F83F80790008607900084C790008B9
:1051100000002440FEF78AF80022002306460F46CE
:1051200002F0ECF8002840F0E48342464B4630465B
:105130003946FEF7A5F9FEF78BFA8246FEF710F81E
:1051400042464B46FEF772F802460B463046394659
:10515000FDF7B8FE0AF1300E05F801EBCBEB050EBA
:10516000744506460F464FF00002B74BD2D1DDF82A
:1051700000B0039C32463B4630463946FDF7A4FE5C
:1051800006460F464046494632463B4602F0C0F8C6
:1051900048B94046494632463B4602F0AFF8B0B106
:1051A0001AF0010F13D015F8018C09996B1E04E059
:1051B0008B4200F0488413F8018DB8F1390F03F1E8
:1051C00001051A46F4D008F10103DBB21370204642
:1051D000594601F07FF80022059B2A70049A01339A
:1051E0001360239B002B00F04B8309981D6019B0BE
:1051F000BDE8F08F0B9A002A00F08580039A012AFF
:1052000040F30A83089B5F1E0A9BBB42C0F2A68341
:10521000DF1B089B002BC0F2A484079D089B079A04
:105220001A440792069A20461A440121069201F078
:10523000EBF8064665B1069900290B4608DDA94240
:10524000079AA8BF2B46D21AED1ACB1A07920693DB
:105250000A9B002B1ADD0B9B002B00F07883002F9C
:1052600010DD31463A46204601F072F906465A46AC
:105270003146204601F0D2F859468046204601F0DA
:1052800029F8C3460A9BDA1B40F0A582204601217B
:1052900001F0BAF80C9B002B804638DD01461A4617
:1052A000204601F055F9039B012B804640F399827B
:1052B0004FF00009D8F8103008EB8303186901F0AB
:1052C00055F8C0F120002CE001230D936AE6059803
:1052D000FDF746FF32463B4602F010F800287FF407
:1052E0004BAE059B013B059346E6079A059BD21AF8
:1052F0005B420A93002307920C9366E65B42079396
:105300000023069356E60A9F079D0B9E92E7039B98
:10531000012B40F3B8824FF000090C9B002BC9D140
:105320000120069B184410F01F0000F08380C0F19C
:105330002003042B40F3B984C0F11C00079B0344F5
:105340000793069B034405440693079B002B05DD4A
:1053500059461A46204601F04BF98346069B002B1E
:1053600005DD41461A46204601F042F980460D9B74
:10537000002B40F06A82089B002B40F397820B9B26
:10538000002B71D1DDF82490089F4D4602E000F01B
:10539000ABFF834641465846FFF7AAFC00F1300CAC
:1053A00005F801CBC9EB0503BB42204659464FF037
:1053B0000A024FF00003EADB099B089A012AACBFFE
:1053C0009B1801331D464FF0000A59460122204622
:1053D000CDF800C001F00CF94146834601F05EF9BA
:1053E0000028DDF800C040F3EF8215F8012C099980
:1053F0006B1E04E08B4200F0758213F8012D392AF0
:1054000003F10105F6D001321A704146204600F042
:1054100061FF002E3FF4DBAEBAF1000F05D0B245BC
:1054200003D05146204600F055FF3146204600F09B
:1054300051FFCCE61C2081E7044B009A5B1B02FA6B
:1054400003F066E50D90ADE500002440EEFBFFFFA4
:105450003146002320460A2200F046FF0E9B002B17
:10546000064640F30B840893002D05DD31462A469D
:10547000204601F0BDF80646B9F1000F40F0ED827C
:10548000B146089B099A013BD3180893009B03F08F
:1054900001030A93174641465846FFF729FC314657
:1054A0000546584601F0FAF84A46824641462046EB
:1054B00001F018F9C268034605F1300C002A40F0EB
:1054C000BA8119465846CDF81CC0069301F0E6F89B
:1054D000069B00901946204600F0FCFE009ADDF87D
:1054E0001CC02AB9039B1BB90A9B002B00F0AA839E
:1054F000BAF1000FC0F24A8205D1039B1BB90A9B87
:10550000002B00F04382002A00F3BB82089B87F83F
:1055100000C007F1010A9F42554600F0BE8259467D
:105520000A220023204600F0DFFE4E458346314626
:1055300020464FF00A024FF0000300F0768100F0A1
:10554000D3FE494606460A222046002300F0CCFE40
:10555000574681469FE701230B93BAF1000F40F3B2
:105560000C8256465546CDF838A0CDF820A0002133
:10557000172E61640AD9012204235B0003F1140091
:105580008642114602F10102F7D26164204600F022
:105590007BFE0E2D099020643FF655AD002F3FF4A1
:1055A00052AD9DED007B059900298DED107B40F3F8
:1055B0002382B74B01F00F020D1103EBC203E90682
:1055C000D3E9006740F1D281B24B51EC170BD3E91C
:1055D0000823FDF755FFCDE9000105F00F054FF059
:1055E00003088DB1DFF8AC9230463946EA0705D59D
:1055F000D9E90023FDF71AFE08F101086D1009F141
:105600000809F3D106460F46DDE9000132463B4664
:10561000FDF736FFCDE900010D9B43B1DDE9000147
:1056200000229D4B01F074FE002840F0AE824046FF
:10563000FDF796FDDDE90023FDF7F8FD974B00220D
:10564000FDF742FC089B0646A1F15077002B00F0C5
:105650006281059BDDF8209014930B9B002B00F0DA
:1056600023828B4B8E4903EBC90353E902230020AD
:10567000FDF706FF32463B46FDF724FCDDE90067F7
:10568000CDE9120139463046FDF7E2FF0546FDF748
:1056900067FD303502460B4630463946FDF712FCB1
:1056A0005FFA85F8099DDDE9122385F8008006463A
:1056B0000F46013501F02CFE002840F0A78232464B
:1056C0003B4600207449FDF7FDFB02460B46DDE931
:1056D000120101F03BFE002840F0AD82B9F1010F4C
:1056E00040F38481099BCDF800B0CDF854A09944D3
:1056F000A046DDE912AB0DE000206749FDF7E2FBB3
:1057000052465B4601F004FE002840F08F824D4572
:1057100000F06781504659460022624BFDF786FD36
:105720000022604B82468B4630463946FDF77EFDAF
:105730000F460646FDF78CFF0446FDF711FD0246B5
:105740000B4630463946FDF7BDFB3034E4B25246D5
:105750005B4605F8014B06460F4601F0D9FD32467F
:105760003B460028C8D0149BDDF800B005934446A2
:105770002DE500230B93059B53440E930133002B1F
:10578000089340F30181089D2E46F0E600230B9319
:10579000E3E6089B002B3FF767AC40F0D48040461F
:1057A0000022414B4946FDF741FDDDE9002301F0B0
:1057B000C3FDDDF820804646002800F08B806FEAAC
:1057C0000A03099D05934146204600F083FD002E03
:1057D0007FF42BAEFBE45946204600F0B9FE834629
:1057E00054E5009B002B7FF463AD019BC3F31303CF
:1057F000002B7FF490AD019B23F000473F0D3F0548
:10580000002F00F01C82079B01330793069B013396
:1058100006934FF0010980E50F9A002A00F0A78156
:1058200003F233430A9F079DF9E400F05DFD5746FC
:10583000064681462FE601462046CDF800C000F01E
:1058400049FD0122DDF800C052E65846414600F00D
:1058500025FF0028BFF68FAD059F5946002320463F
:105860000A22013F059700F03FFD0B9B8346002B6A
:105870007FF4EEAD0E9B002B40F3F581089381E59C
:105880000998FFF704BB009B002B7FF444ADACE705
:1058900080790008487A00080000F03F00001C40B2
:1058A0000000E03F0000244000001440039B022B56
:1058B0007FF765AD089B002B81D14146052220462C
:1058C00000F012FD80464146584600F0E7FE0028F1
:1058D0007FF775AF059A09993123013205920B7054
:1058E0004D1C70E7059A01320592099A3123137015
:1058F0008BE5DDF800B0039C69E44046FDF730FC21
:10590000DDE90023FDF792FC0022C24BFDF7DCFA33
:105910000646A1F150770022BF4BDDE90001FDF7FB
:10592000D1FA32463B468046894601F00FFD0028F9
:1059300040F0B680324607F100434046494601F048
:10594000E7FC002852D04FF00008464637E759469A
:105950000A9A204600F0FCFD834697E40A9B0C9AC5
:105960000A97FB1A1A440C92002752E49DED107B13
:105970004FF002088DED007B33E601250E9508956A
:10598000AA460021616401E61D46FAE7002A15DDFA
:10599000594601222046CDF800C000F029FE4146BC
:1059A000834600F07BFE0028DDF800C040F3548100
:1059B000BCF1390F00F011810CF1010CB24687F8EF
:1059C00000C07D1C4E4620E504D11CF0010F01D023
:1059D0000BE5154615F8013C302B05F1FF32F8D0E8
:1059E00013E5DDF800B0DDF854A04446DDE91023EE
:1059F000CDE90023FFF727BB059B5D42002D00F09A
:105A0000BD80864B05F00F0203EBC203D3E90023F0
:105A1000DDE91001FDF70AFC2D11CDE9000100F0D0
:105A200027817F4E4FF00208EB0705D5D6E900230A
:105A3000FDF7FCFB08F101086D1006F10806F3D133
:105A4000CDE90001E8E5059A01320592099A302373
:105A5000137031231370FFF7BABB7168204600F052
:105A600013FC33699A1C0546920006F10C010C30B8
:105A7000FDF716FE20462946012200F0B9FD8146B9
:105A8000FFE4BCF1390F00F0A8800CF1010CB24624
:105A900087F800C07D1C4E46B7E4B2464E4694E4FB
:105AA0004FF00008464615E75C4909F1FF3301EB6A
:105AB000C30132461593D1E900013B46FDF7B6FB21
:105AC000DDE90067CDE9120139463046FDF7C0FD3A
:105AD0000546FDF745FB02460B4630463946FDF7C5
