:020000040800F2
:100000000080002089010008F1010008F1010008CA
:10001000F1010008F1010008F101000800000000F2
:10002000000000000000000000000000F1010008D6
:10003000F101000800000000F1010008F1010008D2
:10004000F1010008F1010008F1010008F1010008C8
:10005000F1010008F1010008F1010008F1010008B8
:10006000F1010008F1010008F1010008F1010008A8
:10007000F1010008F1010008F1010008F101000898
:10008000F1010008F1010008F1010008F101000888
:10009000F1010008F1010008F1010008F101000878
:1000A000F1010008F1010008F1010008F101000868
:1000B000F1010008F1010008F1010008F101000858
:1000C000F1010008F1010008F1010008F101000848
:1000D000F1010008F1010008F1010008F101000838
:1000E000F1010008F1010008F1010008F101000828
:1000F000F1010008F1010008F1010008F101000818
:10010000F1010008F1010008F1010008F101000807
:10011000F1010008F1010008F1010008F1010008F7
:10012000F1010008F1010008F1010008F1010008E7
:10013000F1010008F1010008F1010008F1010008D7
:10014000F1010008F1010008F1010008F1010008C7
:10015000F1010008F1010008F1010008F1010008B7
:10016000F1010008F1010008F1010008F1010008A7
:10017000F1010008F1010008F1010008F101000897
:10018000F1010008F101000880B582B000AF124B08
:100190007B60124B3B6007E03B681A1D3A607A684F
:1001A000111D796012681A603B680D4A9342F3D3BF
:1001B0000C480D494FF000028842B8BF40F8042BAC
:1001C000FADBDFF82800016841F47001016000F0FB
:1001D000CBF80837BD4680BDF806000800000020B7
:1001E00000000020000000200000002088ED00E05A
:1001F00080B400AFFEE700BF80B582B000AF012041
:10020000012100F0F1F801233B710023BB710323AE
:100210007B710023FB7101233B603B460548194677
:1002200000F000F90348012100F08AF90837BD46C3
:1002300080BD00BF0000024080B582B000AF012049
:10024000012100F0D1F801233B710023BB7103238E
:100250007B710023FB7102233B603B460548194636
:1002600000F0E0F80348022100F06AF90837BD46C3
:1002700080BD00BF0000024080B582B000AF012009
:10028000012100F0B1F801233B710023BB7103236E
:100290007B710023FB7104233B603B4605481946F4
:1002A00000F0C0F80348042100F04AF90837BD46C1
:1002B00080BD00BF0000024080B485B000AF786010
:1002C0000023FB6002E0FB680133FB60FA687B6897
:1002D0009A42F8DD1437BD465DF8047B704700BFD5
:1002E00080B582B000AF78600848012100F028F99D
:1002F0007868FFF7E1FF0548012100F02FF97868E1
:10030000FFF7DAFF0837BD4680BD00BF000002409E
:1003100080B582B000AF78600848022100F010F983
:100320007868FFF7C9FF0548022100F017F97868DF
:10033000FFF7C2FF0837BD4680BD00BF0000024086
:1003400080B582B000AF78600648042100F0F8F86C
:100350007868FFF7B1FF0348042100F0FFF8083781
:10036000BD4680BD0000024080B584B000AF00F003
:1003700003F94FF4407000F0ADF9FFF73DFFFFF7D0
:100380005BFFFFF779FF1448012100F0E7F81248FE
:10039000022100F0E3F81048042100F0DFF80F4BD1
:1003A000FB600F4BBB600F4B7B60F868FFF798FF5B
:1003B000F868FFF795FFF868FFF792FFB868FFF756
:1003C000A7FFB868FFF7A4FF7868FFF7B9FFF868E0
:1003D000FFF79EFFE9E700BF00000240809698000B
:1003E000C0E1E4000087930380B483B000AF78607D
:1003F0000B46FB70FB78002B06D00949084B1A6BA3
:100400007B6813430B6306E00549054B1A6B7B6859
:10041000DB4313400B630C37BD465DF8047B70472C
:100420000038024080B487B000AF786039600023A4
:100430007B6100233B610023FB6000237B6176E04E
:100440007B69012202FA03F33B613B681A683B694E
:100450001340FB60FA683B699A4265D17B681A6871
:100460007B695B00194603238B40DB431A407B68A2
:100470001A607B681A683B681B7919467B695B00C8
:1004800001FA03F31A437B681A603B681B79012B5E
:1004900003D03B681B79022B2ED17B689A687B695D
:1004A0005B00194603238B40DB431A407B689A604C
:1004B0007B689A683B685B7919467B695B0001FA47
:1004C00003F31A437B689A607B685A687B699BB226
:1004D000194601238B40DB431A407B685A607B68D6
:1004E0005B683A68927911467A6992B201FA02F22F
:1004F00092B21A437B685A607B68DA687B699BB268
:100500005B00032101FA03F3DB431A407B68DA60E6
:100510007B68DA683B68DB7919467B695B0001FA26
:1005200003F31A437B68DA607B6901337B617B6983
:100530000F2B85D91C37BD465DF8047B704700BF83
:1005400080B483B000AF78600B467B807B687A888C
:100550001A830C37BD465DF8047B704780B483B0C6
:1005600000AF78600B467B807B687A885A830C37B3
:10057000BD465DF8047B704780B500AF154A154B4A
:10058000D3F8883043F47003C2F88830124A124B13
:100590001B6843F0010313600F4B00229A600E4A60
:1005A0000D4B1B6823F0847323F4803313600A4BD4
:1005B0000A4A5A60084A084B1B6823F480231360D8
:1005C000054B0022DA6000F00BF8024B4FF000629E
:1005D0009A6080BD00ED00E0003802401030002439
:1005E00080B483B000AF00237B6000233B60354ABA
:1005F000344B1B6843F480331360324B1B6803F4A5
:1006000000333B607B6801337B603B68002B03D188
:100610007B68B3F5A06FF0D12A4B1B6803F400335D
:10062000002B02D001233B6001E000233B603B68CC
:10063000012B42D1234A234B1B6C43F0805313649C
:10064000214A214B1B6843F4804313601D4A1D4B14
:100650009B6893601B4A1B4B9B6843F40043936069
:10066000184A184B9B6843F4A0539360154B174AE4
:100670005A60144A134B1B6843F08073136000BF29
:10068000104B1B6803F00073002BF9D0104B40F2A5
:1006900005621A600B4A0B4B9B6823F003039360BF
:1006A000084A084B9B6843F00203936000BF054B68
:1006B0009B6803F00C03082BF9D10C37BD465DF89D
:1006C000047B704700380240007000400854400727
:1006D000003C024080B483B000AF7860054A7B687C
:1006E00043F0BF6343F40033D3600C37BD465DF87D
:0806F000047B704700ED00E0FF
:0400000508000000EF
:00000001FF
